{
  "address": "0x9704f3d074dDF3D7d525764B7393f94629152202",
  "abi": [
    {
      "inputs": [],
      "stateMutability": "nonpayable",
      "type": "constructor"
    },
    {
      "anonymous": false,
      "inputs": [
        {
          "indexed": true,
          "internalType": "address",
          "name": "owner",
          "type": "address"
        },
        {
          "indexed": true,
          "internalType": "address",
          "name": "approved",
          "type": "address"
        },
        {
          "indexed": true,
          "internalType": "uint256",
          "name": "tokenId",
          "type": "uint256"
        }
      ],
      "name": "Approval",
      "type": "event"
    },
    {
      "anonymous": false,
      "inputs": [
        {
          "indexed": true,
          "internalType": "address",
          "name": "owner",
          "type": "address"
        },
        {
          "indexed": true,
          "internalType": "address",
          "name": "operator",
          "type": "address"
        },
        {
          "indexed": false,
          "internalType": "bool",
          "name": "approved",
          "type": "bool"
        }
      ],
      "name": "ApprovalForAll",
      "type": "event"
    },
    {
      "anonymous": false,
      "inputs": [
        {
          "indexed": true,
          "internalType": "address",
          "name": "from",
          "type": "address"
        },
        {
          "indexed": true,
          "internalType": "address",
          "name": "to",
          "type": "address"
        },
        {
          "indexed": true,
          "internalType": "uint256",
          "name": "tokenId",
          "type": "uint256"
        }
      ],
      "name": "Transfer",
      "type": "event"
    },
    {
      "inputs": [
        {
          "internalType": "address",
          "name": "to",
          "type": "address"
        },
        {
          "internalType": "uint256",
          "name": "tokenId",
          "type": "uint256"
        }
      ],
      "name": "approve",
      "outputs": [],
      "stateMutability": "nonpayable",
      "type": "function"
    },
    {
      "inputs": [
        {
          "internalType": "address",
          "name": "owner",
          "type": "address"
        }
      ],
      "name": "balanceOf",
      "outputs": [
        {
          "internalType": "uint256",
          "name": "",
          "type": "uint256"
        }
      ],
      "stateMutability": "view",
      "type": "function"
    },
    {
      "inputs": [
        {
          "internalType": "uint256",
          "name": "_movieNum",
          "type": "uint256"
        },
        {
          "internalType": "uint8",
          "name": "ratingVal",
          "type": "uint8"
        }
      ],
      "name": "castMovieRating",
      "outputs": [],
      "stateMutability": "nonpayable",
      "type": "function"
    },
    {
      "inputs": [
        {
          "internalType": "address",
          "name": "creator",
          "type": "address"
        },
        {
          "internalType": "string",
          "name": "name",
          "type": "string"
        },
        {
          "internalType": "string",
          "name": "ipfsHash",
          "type": "string"
        }
      ],
      "name": "createNFT",
      "outputs": [
        {
          "internalType": "uint256",
          "name": "",
          "type": "uint256"
        }
      ],
      "stateMutability": "nonpayable",
      "type": "function"
    },
    {
      "inputs": [],
      "name": "getAllMovies",
      "outputs": [
        {
          "components": [
            {
              "internalType": "uint256",
              "name": "movieNumber",
              "type": "uint256"
            },
            {
              "internalType": "string",
              "name": "movieName",
              "type": "string"
            },
            {
              "internalType": "string",
              "name": "ipfsHash",
              "type": "string"
            }
          ],
          "internalType": "struct MoviesNFT.movieData[]",
          "name": "",
          "type": "tuple[]"
        }
      ],
      "stateMutability": "view",
      "type": "function"
    },
    {
      "inputs": [],
      "name": "getAllRatings",
      "outputs": [
        {
          "components": [
            {
              "internalType": "address",
              "name": "ratingOwner",
              "type": "address"
            },
            {
              "internalType": "uint256",
              "name": "movieNumber",
              "type": "uint256"
            },
            {
              "internalType": "uint8",
              "name": "ratingVal",
              "type": "uint8"
            },
            {
              "internalType": "uint256",
              "name": "createdAt",
              "type": "uint256"
            }
          ],
          "internalType": "struct MoviesNFT.rating[]",
          "name": "",
          "type": "tuple[]"
        }
      ],
      "stateMutability": "view",
      "type": "function"
    },
    {
      "inputs": [
        {
          "internalType": "uint256",
          "name": "tokenId",
          "type": "uint256"
        }
      ],
      "name": "getApproved",
      "outputs": [
        {
          "internalType": "address",
          "name": "",
          "type": "address"
        }
      ],
      "stateMutability": "view",
      "type": "function"
    },
    {
      "inputs": [
        {
          "internalType": "uint256",
          "name": "_movieNum",
          "type": "uint256"
        }
      ],
      "name": "getAvgMovieRating",
      "outputs": [
        {
          "internalType": "uint8",
          "name": "",
          "type": "uint8"
        }
      ],
      "stateMutability": "view",
      "type": "function"
    },
    {
      "inputs": [
        {
          "internalType": "uint256",
          "name": "_movieNum",
          "type": "uint256"
        }
      ],
      "name": "getMovieByNumber",
      "outputs": [
        {
          "components": [
            {
              "internalType": "uint256",
              "name": "movieNumber",
              "type": "uint256"
            },
            {
              "internalType": "string",
              "name": "movieName",
              "type": "string"
            },
            {
              "internalType": "string",
              "name": "ipfsHash",
              "type": "string"
            }
          ],
          "internalType": "struct MoviesNFT.movieData",
          "name": "",
          "type": "tuple"
        }
      ],
      "stateMutability": "view",
      "type": "function"
    },
    {
      "inputs": [
        {
          "internalType": "address",
          "name": "userAdd",
          "type": "address"
        }
      ],
      "name": "getUserRating",
      "outputs": [
        {
          "components": [
            {
              "internalType": "uint256",
              "name": "movieNumber",
              "type": "uint256"
            },
            {
              "internalType": "uint8",
              "name": "ratingVal",
              "type": "uint8"
            }
          ],
          "internalType": "struct MoviesNFT.userRatingVal[]",
          "name": "",
          "type": "tuple[]"
        }
      ],
      "stateMutability": "view",
      "type": "function"
    },
    {
      "inputs": [
        {
          "internalType": "uint256",
          "name": "_movieNum",
          "type": "uint256"
        }
      ],
      "name": "hasUserRated",
      "outputs": [
        {
          "internalType": "bool",
          "name": "",
          "type": "bool"
        },
        {
          "internalType": "uint8",
          "name": "",
          "type": "uint8"
        }
      ],
      "stateMutability": "view",
      "type": "function"
    },
    {
      "inputs": [
        {
          "internalType": "address",
          "name": "owner",
          "type": "address"
        },
        {
          "internalType": "address",
          "name": "operator",
          "type": "address"
        }
      ],
      "name": "isApprovedForAll",
      "outputs": [
        {
          "internalType": "bool",
          "name": "",
          "type": "bool"
        }
      ],
      "stateMutability": "view",
      "type": "function"
    },
    {
      "inputs": [
        {
          "internalType": "uint256",
          "name": "",
          "type": "uint256"
        }
      ],
      "name": "movies",
      "outputs": [
        {
          "internalType": "uint256",
          "name": "movieNumber",
          "type": "uint256"
        },
        {
          "internalType": "string",
          "name": "movieName",
          "type": "string"
        },
        {
          "internalType": "string",
          "name": "ipfsHash",
          "type": "string"
        }
      ],
      "stateMutability": "view",
      "type": "function"
    },
    {
      "inputs": [
        {
          "internalType": "uint256",
          "name": "",
          "type": "uint256"
        }
      ],
      "name": "moviesArr",
      "outputs": [
        {
          "internalType": "uint256",
          "name": "movieNumber",
          "type": "uint256"
        },
        {
          "internalType": "string",
          "name": "movieName",
          "type": "string"
        },
        {
          "internalType": "string",
          "name": "ipfsHash",
          "type": "string"
        }
      ],
      "stateMutability": "view",
      "type": "function"
    },
    {
      "inputs": [],
      "name": "name",
      "outputs": [
        {
          "internalType": "string",
          "name": "",
          "type": "string"
        }
      ],
      "stateMutability": "view",
      "type": "function"
    },
    {
      "inputs": [
        {
          "internalType": "uint256",
          "name": "tokenId",
          "type": "uint256"
        }
      ],
      "name": "ownerOf",
      "outputs": [
        {
          "internalType": "address",
          "name": "",
          "type": "address"
        }
      ],
      "stateMutability": "view",
      "type": "function"
    },
    {
      "inputs": [
        {
          "internalType": "address",
          "name": "from",
          "type": "address"
        },
        {
          "internalType": "address",
          "name": "to",
          "type": "address"
        },
        {
          "internalType": "uint256",
          "name": "tokenId",
          "type": "uint256"
        }
      ],
      "name": "safeTransferFrom",
      "outputs": [],
      "stateMutability": "nonpayable",
      "type": "function"
    },
    {
      "inputs": [
        {
          "internalType": "address",
          "name": "from",
          "type": "address"
        },
        {
          "internalType": "address",
          "name": "to",
          "type": "address"
        },
        {
          "internalType": "uint256",
          "name": "tokenId",
          "type": "uint256"
        },
        {
          "internalType": "bytes",
          "name": "data",
          "type": "bytes"
        }
      ],
      "name": "safeTransferFrom",
      "outputs": [],
      "stateMutability": "nonpayable",
      "type": "function"
    },
    {
      "inputs": [
        {
          "internalType": "address",
          "name": "operator",
          "type": "address"
        },
        {
          "internalType": "bool",
          "name": "approved",
          "type": "bool"
        }
      ],
      "name": "setApprovalForAll",
      "outputs": [],
      "stateMutability": "nonpayable",
      "type": "function"
    },
    {
      "inputs": [
        {
          "internalType": "bytes4",
          "name": "interfaceId",
          "type": "bytes4"
        }
      ],
      "name": "supportsInterface",
      "outputs": [
        {
          "internalType": "bool",
          "name": "",
          "type": "bool"
        }
      ],
      "stateMutability": "view",
      "type": "function"
    },
    {
      "inputs": [],
      "name": "symbol",
      "outputs": [
        {
          "internalType": "string",
          "name": "",
          "type": "string"
        }
      ],
      "stateMutability": "view",
      "type": "function"
    },
    {
      "inputs": [
        {
          "internalType": "uint256",
          "name": "tokenId",
          "type": "uint256"
        }
      ],
      "name": "tokenURI",
      "outputs": [
        {
          "internalType": "string",
          "name": "",
          "type": "string"
        }
      ],
      "stateMutability": "view",
      "type": "function"
    },
    {
      "inputs": [
        {
          "internalType": "address",
          "name": "from",
          "type": "address"
        },
        {
          "internalType": "address",
          "name": "to",
          "type": "address"
        },
        {
          "internalType": "uint256",
          "name": "tokenId",
          "type": "uint256"
        }
      ],
      "name": "transferFrom",
      "outputs": [],
      "stateMutability": "nonpayable",
      "type": "function"
    }
  ],
  "transactionHash": "0x5f78491884e4ae8c98be51f6c0b2abf315f7ad492fcbc968396aae342d1dfb2a",
  "args": [],
  "numDeployments": 4,
  "solcInputHash": "2bac911d8cd5052d4ce4e03f28ae0d80",
  "bytecode": "0x60806040523480156200001157600080fd5b506040518060400160405280600881526020017f4d6f7669654e46540000000000000000000000000000000000000000000000008152506040518060400160405280600481526020017f4d4e46540000000000000000000000000000000000000000000000000000000081525081600090816200008f919062000324565b508060019081620000a1919062000324565b5050506200040b565b600081519050919050565b7f4e487b7100000000000000000000000000000000000000000000000000000000600052604160045260246000fd5b7f4e487b7100000000000000000000000000000000000000000000000000000000600052602260045260246000fd5b600060028204905060018216806200012c57607f821691505b602082108103620001425762000141620000e4565b5b50919050565b60008190508160005260206000209050919050565b60006020601f8301049050919050565b600082821b905092915050565b600060088302620001ac7fffffffffffffffffffffffffffffffffffffffffffffffffffffffffffffffff826200016d565b620001b886836200016d565b95508019841693508086168417925050509392505050565b6000819050919050565b6000819050919050565b600062000205620001ff620001f984620001d0565b620001da565b620001d0565b9050919050565b6000819050919050565b6200022183620001e4565b6200023962000230826200020c565b8484546200017a565b825550505050565b600090565b6200025062000241565b6200025d81848462000216565b505050565b5b8181101562000285576200027960008262000246565b60018101905062000263565b5050565b601f821115620002d4576200029e8162000148565b620002a9846200015d565b81016020851015620002b9578190505b620002d1620002c8856200015d565b83018262000262565b50505b505050565b600082821c905092915050565b6000620002f960001984600802620002d9565b1980831691505092915050565b6000620003148383620002e6565b9150826002028217905092915050565b6200032f82620000aa565b67ffffffffffffffff8111156200034b576200034a620000b5565b5b62000357825462000113565b6200036482828562000289565b600060209050601f8311600181146200039c576000841562000387578287015190505b62000393858262000306565b86555062000403565b601f198416620003ac8662000148565b60005b82811015620003d657848901518255600182019150602085019450602081019050620003af565b86831015620003f65784890151620003f2601f891682620002e6565b8355505b6001600288020188555050505b505050505050565b614229806200041b6000396000f3fe608060405234801561001057600080fd5b506004361061014c5760003560e01c80636352211e116100c3578063b88d4fde1161007c578063b88d4fde146103fe578063c87b56dd1461041a578063de5d9f3e1461044a578063e16f00651461047a578063e985e9c514610498578063eac977c4146104c85761014c565b80636352211e146103035780636b3f30d41461033357806370a082311461036357806385d871e41461039357806395d89b41146103c4578063a22cb465146103e25761014c565b8063095ea7b311610115578063095ea7b31461021d5780630b564a7c1461023957806323b872dd14610269578063404ebf6c1461028557806342842e0e146102b7578063460168c3146102d35761014c565b80620a09c01461015157806301ffc9a71461016d57806303148ded1461019d57806306fdde03146101cf578063081812fc146101ed575b600080fd5b61016b600480360381019061016691906129f3565b6104e6565b005b61018760048036038101906101829190612a8b565b6107a4565b6040516101949190612ad3565b60405180910390f35b6101b760048036038101906101b29190612aee565b610886565b6040516101c693929190612bba565b60405180910390f35b6101d76109d0565b6040516101e49190612bff565b60405180910390f35b61020760048036038101906102029190612aee565b610a62565b6040516102149190612c62565b60405180910390f35b61023760048036038101906102329190612ca9565b610aa8565b005b610253600480360381019061024e9190612e1e565b610bbf565b6040516102609190612ea9565b60405180910390f35b610283600480360381019061027e9190612ec4565b610cc9565b005b61029f600480360381019061029a9190612aee565b610d29565b6040516102ae93929190612bba565b60405180910390f35b6102d160048036038101906102cc9190612ec4565b610e63565b005b6102ed60048036038101906102e89190612f17565b610e83565b6040516102fa9190613040565b60405180910390f35b61031d60048036038101906103189190612aee565b611028565b60405161032a9190612c62565b60405180910390f35b61034d60048036038101906103489190612aee565b6110ae565b60405161035a9190613071565b60405180910390f35b61037d60048036038101906103789190612f17565b611173565b60405161038a9190612ea9565b60405180910390f35b6103ad60048036038101906103a89190612aee565b61122a565b6040516103bb92919061308c565b60405180910390f35b6103cc611346565b6040516103d99190612bff565b60405180910390f35b6103fc60048036038101906103f791906130e1565b6113d8565b005b610418600480360381019061041391906131c2565b6113ee565b005b610434600480360381019061042f9190612aee565b611450565b6040516104419190612bff565b60405180910390f35b610464600480360381019061045f9190612aee565b611562565b60405161047191906132e6565b60405180910390f35b6104826116bd565b60405161048f9190613421565b60405180910390f35b6104b260048036038101906104ad9190613443565b61184a565b6040516104bf9190612ad3565b60405180910390f35b6104d06118de565b6040516104dd9190613596565b60405180910390f35b60005b600a805490508110156105f7573373ffffffffffffffffffffffffffffffffffffffff16600a8281548110610521576105206135b8565b5b906000526020600020906004020160000160009054906101000a900473ffffffffffffffffffffffffffffffffffffffff1673ffffffffffffffffffffffffffffffffffffffff1614801561059a575082600a8281548110610586576105856135b8565b5b906000526020600020906004020160010154145b156105e45760026001146105e3576040517f08c379a00000000000000000000000000000000000000000000000000000000081526004016105da90613633565b60405180910390fd5b5b80806105ef90613682565b9150506104e9565b50600060405180608001604052803373ffffffffffffffffffffffffffffffffffffffff1681526020018481526020018360ff16815260200142815250905080600b60003373ffffffffffffffffffffffffffffffffffffffff1673ffffffffffffffffffffffffffffffffffffffff16815260200190815260200160002060008201518160000160006101000a81548173ffffffffffffffffffffffffffffffffffffffff021916908373ffffffffffffffffffffffffffffffffffffffff1602179055506020820151816001015560408201518160020160006101000a81548160ff021916908360ff16021790555060608201518160030155905050600a81908060018154018082558091505060019003906000526020600020906004020160009091909190915060008201518160000160006101000a81548173ffffffffffffffffffffffffffffffffffffffff021916908373ffffffffffffffffffffffffffffffffffffffff1602179055506020820151816001015560408201518160020160006101000a81548160ff021916908360ff160217905550606082015181600301555050505050565b60007f80ac58cd000000000000000000000000000000000000000000000000000000007bffffffffffffffffffffffffffffffffffffffffffffffffffffffff1916827bffffffffffffffffffffffffffffffffffffffffffffffffffffffff1916148061086f57507f5b5e139f000000000000000000000000000000000000000000000000000000007bffffffffffffffffffffffffffffffffffffffffffffffffffffffff1916827bffffffffffffffffffffffffffffffffffffffffffffffffffffffff1916145b8061087f575061087e826119c4565b5b9050919050565b6008818154811061089657600080fd5b90600052602060002090600302016000915090508060000154908060010180546108bf906136f9565b80601f01602080910402602001604051908101604052809291908181526020018280546108eb906136f9565b80156109385780601f1061090d57610100808354040283529160200191610938565b820191906000526020600020905b81548152906001019060200180831161091b57829003601f168201915b50505050509080600201805461094d906136f9565b80601f0160208091040260200160405190810160405280929190818152602001828054610979906136f9565b80156109c65780601f1061099b576101008083540402835291602001916109c6565b820191906000526020600020905b8154815290600101906020018083116109a957829003601f168201915b5050505050905083565b6060600080546109df906136f9565b80601f0160208091040260200160405190810160405280929190818152602001828054610a0b906136f9565b8015610a585780601f10610a2d57610100808354040283529160200191610a58565b820191906000526020600020905b815481529060010190602001808311610a3b57829003601f168201915b5050505050905090565b6000610a6d82611a2e565b6004600083815260200190815260200160002060009054906101000a900473ffffffffffffffffffffffffffffffffffffffff169050919050565b6000610ab382611028565b90508073ffffffffffffffffffffffffffffffffffffffff168373ffffffffffffffffffffffffffffffffffffffff1603610b23576040517f08c379a0000000000000000000000000000000000000000000000000000000008152600401610b1a9061379c565b60405180910390fd5b8073ffffffffffffffffffffffffffffffffffffffff16610b42611a79565b73ffffffffffffffffffffffffffffffffffffffff161480610b715750610b7081610b6b611a79565b61184a565b5b610bb0576040517f08c379a0000000000000000000000000000000000000000000000000000000008152600401610ba79061382e565b60405180910390fd5b610bba8383611a81565b505050565b6000610bcb6007611b3a565b6000610bd76007611b50565b9050600060405180606001604052808381526020018681526020018581525090508060096000848152602001908152602001600020600082015181600001556020820151816001019081610c2b91906139fa565b506040820151816002019081610c4191906139fa565b509050506008819080600181540180825580915050600190039060005260206000209060030201600090919091909150600082015181600001556020820151816001019081610c9091906139fa565b506040820151816002019081610ca691906139fa565b505050610cb38683611b5e565b610cbd8285611d7b565b81925050509392505050565b610cda610cd4611a79565b82611de8565b610d19576040517f08c379a0000000000000000000000000000000000000000000000000000000008152600401610d1090613b3e565b60405180910390fd5b610d24838383611e7d565b505050565b6009602052806000526040600020600091509050806000015490806001018054610d52906136f9565b80601f0160208091040260200160405190810160405280929190818152602001828054610d7e906136f9565b8015610dcb5780601f10610da057610100808354040283529160200191610dcb565b820191906000526020600020905b815481529060010190602001808311610dae57829003601f168201915b505050505090806002018054610de0906136f9565b80601f0160208091040260200160405190810160405280929190818152602001828054610e0c906136f9565b8015610e595780601f10610e2e57610100808354040283529160200191610e59565b820191906000526020600020905b815481529060010190602001808311610e3c57829003601f168201915b5050505050905083565b610e7e838383604051806020016040528060008152506113ee565b505050565b6060600061271067ffffffffffffffff811115610ea357610ea2612cf3565b5b604051908082528060200260200182016040528015610edc57816020015b610ec9612932565b815260200190600190039081610ec15790505b5090506000805b600a8054905081101561101d578473ffffffffffffffffffffffffffffffffffffffff16600a8281548110610f1b57610f1a6135b8565b5b906000526020600020906004020160000160009054906101000a900473ffffffffffffffffffffffffffffffffffffffff1673ffffffffffffffffffffffffffffffffffffffff160361100a5760006040518060400160405280600a8481548110610f8957610f886135b8565b5b9060005260206000209060040201600101548152602001600a8481548110610fb457610fb36135b8565b5b906000526020600020906004020160020160009054906101000a900460ff1660ff16815250905080848481518110610fef57610fee6135b8565b5b6020026020010181905250828061100590613682565b935050505b808061101590613682565b915050610ee3565b508192505050919050565b60008061103483612176565b9050600073ffffffffffffffffffffffffffffffffffffffff168173ffffffffffffffffffffffffffffffffffffffff16036110a5576040517f08c379a000000000000000000000000000000000000000000000000000000000815260040161109c90613baa565b60405180910390fd5b80915050919050565b600080600090506000805b600a805490508110156111575784600a82815481106110db576110da6135b8565b5b9060005260206000209060040201600101540361114457600a8181548110611106576111056135b8565b5b906000526020600020906004020160020160009054906101000a900460ff1660ff16836111339190613bca565b9250818061114090613682565b9250505b808061114f90613682565b9150506110b9565b50600081836111669190613c2d565b9050809350505050919050565b60008073ffffffffffffffffffffffffffffffffffffffff168273ffffffffffffffffffffffffffffffffffffffff16036111e3576040517f08c379a00000000000000000000000000000000000000000000000000000000081526004016111da90613cd0565b60405180910390fd5b600360008373ffffffffffffffffffffffffffffffffffffffff1673ffffffffffffffffffffffffffffffffffffffff168152602001908152602001600020549050919050565b60008060005b600a80549050811015611338573373ffffffffffffffffffffffffffffffffffffffff16600a8281548110611268576112676135b8565b5b906000526020600020906004020160000160009054906101000a900473ffffffffffffffffffffffffffffffffffffffff1673ffffffffffffffffffffffffffffffffffffffff161480156112e1575083600a82815481106112cd576112cc6135b8565b5b906000526020600020906004020160010154145b15611325576001600a82815481106112fc576112fb6135b8565b5b906000526020600020906004020160020160009054906101000a900460ff169250925050611341565b808061133090613682565b915050611230565b50600080915091505b915091565b606060018054611355906136f9565b80601f0160208091040260200160405190810160405280929190818152602001828054611381906136f9565b80156113ce5780601f106113a3576101008083540402835291602001916113ce565b820191906000526020600020905b8154815290600101906020018083116113b157829003601f168201915b5050505050905090565b6113ea6113e3611a79565b83836121b3565b5050565b6113ff6113f9611a79565b83611de8565b61143e576040517f08c379a000000000000000000000000000000000000000000000000000000000815260040161143590613b3e565b60405180910390fd5b61144a8484848461231f565b50505050565b606061145b82611a2e565b600060066000848152602001908152602001600020805461147b906136f9565b80601f01602080910402602001604051908101604052809291908181526020018280546114a7906136f9565b80156114f45780601f106114c9576101008083540402835291602001916114f4565b820191906000526020600020905b8154815290600101906020018083116114d757829003601f168201915b50505050509050600061150561237b565b9050600081510361151a57819250505061155d565b60008251111561154f578082604051602001611537929190613d2c565b6040516020818303038152906040529250505061155d565b61155884612392565b925050505b919050565b61156a61294f565b60096000838152602001908152602001600020604051806060016040529081600082015481526020016001820180546115a2906136f9565b80601f01602080910402602001604051908101604052809291908181526020018280546115ce906136f9565b801561161b5780601f106115f05761010080835404028352916020019161161b565b820191906000526020600020905b8154815290600101906020018083116115fe57829003601f168201915b50505050508152602001600282018054611634906136f9565b80601f0160208091040260200160405190810160405280929190818152602001828054611660906136f9565b80156116ad5780601f10611682576101008083540402835291602001916116ad565b820191906000526020600020905b81548152906001019060200180831161169057829003601f168201915b5050505050815250509050919050565b60606008805480602002602001604051908101604052809291908181526020016000905b8282101561184157838290600052602060002090600302016040518060600160405290816000820154815260200160018201805461171e906136f9565b80601f016020809104026020016040519081016040528092919081815260200182805461174a906136f9565b80156117975780601f1061176c57610100808354040283529160200191611797565b820191906000526020600020905b81548152906001019060200180831161177a57829003601f168201915b505050505081526020016002820180546117b0906136f9565b80601f01602080910402602001604051908101604052809291908181526020018280546117dc906136f9565b80156118295780601f106117fe57610100808354040283529160200191611829565b820191906000526020600020905b81548152906001019060200180831161180c57829003601f168201915b505050505081525050815260200190600101906116e1565b50505050905090565b6000600560008473ffffffffffffffffffffffffffffffffffffffff1673ffffffffffffffffffffffffffffffffffffffff16815260200190815260200160002060008373ffffffffffffffffffffffffffffffffffffffff1673ffffffffffffffffffffffffffffffffffffffff16815260200190815260200160002060009054906101000a900460ff16905092915050565b6060600a805480602002602001604051908101604052809291908181526020016000905b828210156119bb57838290600052602060002090600402016040518060800160405290816000820160009054906101000a900473ffffffffffffffffffffffffffffffffffffffff1673ffffffffffffffffffffffffffffffffffffffff1673ffffffffffffffffffffffffffffffffffffffff168152602001600182015481526020016002820160009054906101000a900460ff1660ff1660ff16815260200160038201548152505081526020019060010190611902565b50505050905090565b60007f01ffc9a7000000000000000000000000000000000000000000000000000000007bffffffffffffffffffffffffffffffffffffffffffffffffffffffff1916827bffffffffffffffffffffffffffffffffffffffffffffffffffffffff1916149050919050565b611a37816123fa565b611a76576040517f08c379a0000000000000000000000000000000000000000000000000000000008152600401611a6d90613baa565b60405180910390fd5b50565b600033905090565b816004600083815260200190815260200160002060006101000a81548173ffffffffffffffffffffffffffffffffffffffff021916908373ffffffffffffffffffffffffffffffffffffffff160217905550808273ffffffffffffffffffffffffffffffffffffffff16611af483611028565b73ffffffffffffffffffffffffffffffffffffffff167f8c5be1e5ebec7d5bd14f71427d1e84f3dd0314c0f7b2291e5b200ac8c7c3b92560405160405180910390a45050565b6001816000016000828254019250508190555050565b600081600001549050919050565b600073ffffffffffffffffffffffffffffffffffffffff168273ffffffffffffffffffffffffffffffffffffffff1603611bcd576040517f08c379a0000000000000000000000000000000000000000000000000000000008152600401611bc490613d9c565b60405180910390fd5b611bd6816123fa565b15611c16576040517f08c379a0000000000000000000000000000000000000000000000000000000008152600401611c0d90613e08565b60405180910390fd5b611c2460008383600161243b565b611c2d816123fa565b15611c6d576040517f08c379a0000000000000000000000000000000000000000000000000000000008152600401611c6490613e08565b60405180910390fd5b6001600360008473ffffffffffffffffffffffffffffffffffffffff1673ffffffffffffffffffffffffffffffffffffffff16815260200190815260200160002060008282540192505081905550816002600083815260200190815260200160002060006101000a81548173ffffffffffffffffffffffffffffffffffffffff021916908373ffffffffffffffffffffffffffffffffffffffff160217905550808273ffffffffffffffffffffffffffffffffffffffff16600073ffffffffffffffffffffffffffffffffffffffff167fddf252ad1be2c89b69c2b068fc378daa952ba7f163c4a11628f55a4df523b3ef60405160405180910390a4611d77600083836001612561565b5050565b611d84826123fa565b611dc3576040517f08c379a0000000000000000000000000000000000000000000000000000000008152600401611dba90613e9a565b60405180910390fd5b80600660008481526020019081526020016000209081611de391906139fa565b505050565b600080611df483611028565b90508073ffffffffffffffffffffffffffffffffffffffff168473ffffffffffffffffffffffffffffffffffffffff161480611e365750611e35818561184a565b5b80611e7457508373ffffffffffffffffffffffffffffffffffffffff16611e5c84610a62565b73ffffffffffffffffffffffffffffffffffffffff16145b91505092915050565b8273ffffffffffffffffffffffffffffffffffffffff16611e9d82611028565b73ffffffffffffffffffffffffffffffffffffffff1614611ef3576040517f08c379a0000000000000000000000000000000000000000000000000000000008152600401611eea90613f2c565b60405180910390fd5b600073ffffffffffffffffffffffffffffffffffffffff168273ffffffffffffffffffffffffffffffffffffffff1603611f62576040517f08c379a0000000000000000000000000000000000000000000000000000000008152600401611f5990613fbe565b60405180910390fd5b611f6f838383600161243b565b8273ffffffffffffffffffffffffffffffffffffffff16611f8f82611028565b73ffffffffffffffffffffffffffffffffffffffff1614611fe5576040517f08c379a0000000000000000000000000000000000000000000000000000000008152600401611fdc90613f2c565b60405180910390fd5b6004600082815260200190815260200160002060006101000a81549073ffffffffffffffffffffffffffffffffffffffff02191690556001600360008573ffffffffffffffffffffffffffffffffffffffff1673ffffffffffffffffffffffffffffffffffffffff168152602001908152602001600020600082825403925050819055506001600360008473ffffffffffffffffffffffffffffffffffffffff1673ffffffffffffffffffffffffffffffffffffffff16815260200190815260200160002060008282540192505081905550816002600083815260200190815260200160002060006101000a81548173ffffffffffffffffffffffffffffffffffffffff021916908373ffffffffffffffffffffffffffffffffffffffff160217905550808273ffffffffffffffffffffffffffffffffffffffff168473ffffffffffffffffffffffffffffffffffffffff167fddf252ad1be2c89b69c2b068fc378daa952ba7f163c4a11628f55a4df523b3ef60405160405180910390a46121718383836001612561565b505050565b60006002600083815260200190815260200160002060009054906101000a900473ffffffffffffffffffffffffffffffffffffffff169050919050565b8173ffffffffffffffffffffffffffffffffffffffff168373ffffffffffffffffffffffffffffffffffffffff1603612221576040517f08c379a00000000000000000000000000000000000000000000000000000000081526004016122189061402a565b60405180910390fd5b80600560008573ffffffffffffffffffffffffffffffffffffffff1673ffffffffffffffffffffffffffffffffffffffff16815260200190815260200160002060008473ffffffffffffffffffffffffffffffffffffffff1673ffffffffffffffffffffffffffffffffffffffff16815260200190815260200160002060006101000a81548160ff0219169083151502179055508173ffffffffffffffffffffffffffffffffffffffff168373ffffffffffffffffffffffffffffffffffffffff167f17307eab39ab6107e8899845ad3d59bd9653f200f220920489ca2b5937696c31836040516123129190612ad3565b60405180910390a3505050565b61232a848484611e7d565b61233684848484612567565b612375576040517f08c379a000000000000000000000000000000000000000000000000000000000815260040161236c906140bc565b60405180910390fd5b50505050565b606060405180602001604052806000815250905090565b606061239d82611a2e565b60006123a761237b565b905060008151116123c757604051806020016040528060008152506123f2565b806123d1846126ee565b6040516020016123e2929190613d2c565b6040516020818303038152906040525b915050919050565b60008073ffffffffffffffffffffffffffffffffffffffff1661241c83612176565b73ffffffffffffffffffffffffffffffffffffffff1614159050919050565b600181111561255b57600073ffffffffffffffffffffffffffffffffffffffff168473ffffffffffffffffffffffffffffffffffffffff16146124cf5780600360008673ffffffffffffffffffffffffffffffffffffffff1673ffffffffffffffffffffffffffffffffffffffff16815260200190815260200160002060008282546124c791906140dc565b925050819055505b600073ffffffffffffffffffffffffffffffffffffffff168373ffffffffffffffffffffffffffffffffffffffff161461255a5780600360008573ffffffffffffffffffffffffffffffffffffffff1673ffffffffffffffffffffffffffffffffffffffff16815260200190815260200160002060008282546125529190613bca565b925050819055505b5b50505050565b50505050565b60006125888473ffffffffffffffffffffffffffffffffffffffff166127bc565b156126e1578373ffffffffffffffffffffffffffffffffffffffff1663150b7a026125b1611a79565b8786866040518563ffffffff1660e01b81526004016125d39493929190614165565b6020604051808303816000875af192505050801561260f57506040513d601f19601f8201168201806040525081019061260c91906141c6565b60015b612691573d806000811461263f576040519150601f19603f3d011682016040523d82523d6000602084013e612644565b606091505b506000815103612689576040517f08c379a0000000000000000000000000000000000000000000000000000000008152600401612680906140bc565b60405180910390fd5b805181602001fd5b63150b7a0260e01b7bffffffffffffffffffffffffffffffffffffffffffffffffffffffff1916817bffffffffffffffffffffffffffffffffffffffffffffffffffffffff1916149150506126e6565b600190505b949350505050565b6060600060016126fd846127df565b01905060008167ffffffffffffffff81111561271c5761271b612cf3565b5b6040519080825280601f01601f19166020018201604052801561274e5781602001600182028036833780820191505090505b509050600082602001820190505b6001156127b1578080600190039150507f3031323334353637383961626364656600000000000000000000000000000000600a86061a8153600a85816127a5576127a4613bfe565b5b0494506000850361275c575b819350505050919050565b6000808273ffffffffffffffffffffffffffffffffffffffff163b119050919050565b600080600090507a184f03e93ff9f4daa797ed6e38ed64bf6a1f010000000000000000831061283d577a184f03e93ff9f4daa797ed6e38ed64bf6a1f010000000000000000838161283357612832613bfe565b5b0492506040810190505b6d04ee2d6d415b85acef8100000000831061287a576d04ee2d6d415b85acef810000000083816128705761286f613bfe565b5b0492506020810190505b662386f26fc1000083106128a957662386f26fc10000838161289f5761289e613bfe565b5b0492506010810190505b6305f5e10083106128d2576305f5e10083816128c8576128c7613bfe565b5b0492506008810190505b61271083106128f75761271083816128ed576128ec613bfe565b5b0492506004810190505b6064831061291a57606483816129105761290f613bfe565b5b0492506002810190505b600a8310612929576001810190505b80915050919050565b604051806040016040528060008152602001600060ff1681525090565b60405180606001604052806000815260200160608152602001606081525090565b6000604051905090565b600080fd5b600080fd5b6000819050919050565b61299781612984565b81146129a257600080fd5b50565b6000813590506129b48161298e565b92915050565b600060ff82169050919050565b6129d0816129ba565b81146129db57600080fd5b50565b6000813590506129ed816129c7565b92915050565b60008060408385031215612a0a57612a0961297a565b5b6000612a18858286016129a5565b9250506020612a29858286016129de565b9150509250929050565b60007fffffffff0000000000000000000000000000000000000000000000000000000082169050919050565b612a6881612a33565b8114612a7357600080fd5b50565b600081359050612a8581612a5f565b92915050565b600060208284031215612aa157612aa061297a565b5b6000612aaf84828501612a76565b91505092915050565b60008115159050919050565b612acd81612ab8565b82525050565b6000602082019050612ae86000830184612ac4565b92915050565b600060208284031215612b0457612b0361297a565b5b6000612b12848285016129a5565b91505092915050565b612b2481612984565b82525050565b600081519050919050565b600082825260208201905092915050565b60005b83811015612b64578082015181840152602081019050612b49565b60008484015250505050565b6000601f19601f8301169050919050565b6000612b8c82612b2a565b612b968185612b35565b9350612ba6818560208601612b46565b612baf81612b70565b840191505092915050565b6000606082019050612bcf6000830186612b1b565b8181036020830152612be18185612b81565b90508181036040830152612bf58184612b81565b9050949350505050565b60006020820190508181036000830152612c198184612b81565b905092915050565b600073ffffffffffffffffffffffffffffffffffffffff82169050919050565b6000612c4c82612c21565b9050919050565b612c5c81612c41565b82525050565b6000602082019050612c776000830184612c53565b92915050565b612c8681612c41565b8114612c9157600080fd5b50565b600081359050612ca381612c7d565b92915050565b60008060408385031215612cc057612cbf61297a565b5b6000612cce85828601612c94565b9250506020612cdf858286016129a5565b9150509250929050565b600080fd5b600080fd5b7f4e487b7100000000000000000000000000000000000000000000000000000000600052604160045260246000fd5b612d2b82612b70565b810181811067ffffffffffffffff82111715612d4a57612d49612cf3565b5b80604052505050565b6000612d5d612970565b9050612d698282612d22565b919050565b600067ffffffffffffffff821115612d8957612d88612cf3565b5b612d9282612b70565b9050602081019050919050565b82818337600083830152505050565b6000612dc1612dbc84612d6e565b612d53565b905082815260208101848484011115612ddd57612ddc612cee565b5b612de8848285612d9f565b509392505050565b600082601f830112612e0557612e04612ce9565b5b8135612e15848260208601612dae565b91505092915050565b600080600060608486031215612e3757612e3661297a565b5b6000612e4586828701612c94565b935050602084013567ffffffffffffffff811115612e6657612e6561297f565b5b612e7286828701612df0565b925050604084013567ffffffffffffffff811115612e9357612e9261297f565b5b612e9f86828701612df0565b9150509250925092565b6000602082019050612ebe6000830184612b1b565b92915050565b600080600060608486031215612edd57612edc61297a565b5b6000612eeb86828701612c94565b9350506020612efc86828701612c94565b9250506040612f0d868287016129a5565b9150509250925092565b600060208284031215612f2d57612f2c61297a565b5b6000612f3b84828501612c94565b91505092915050565b600081519050919050565b600082825260208201905092915050565b6000819050602082019050919050565b612f7981612984565b82525050565b612f88816129ba565b82525050565b604082016000820151612fa46000850182612f70565b506020820151612fb76020850182612f7f565b50505050565b6000612fc98383612f8e565b60408301905092915050565b6000602082019050919050565b6000612fed82612f44565b612ff78185612f4f565b935061300283612f60565b8060005b8381101561303357815161301a8882612fbd565b975061302583612fd5565b925050600181019050613006565b5085935050505092915050565b6000602082019050818103600083015261305a8184612fe2565b905092915050565b61306b816129ba565b82525050565b60006020820190506130866000830184613062565b92915050565b60006040820190506130a16000830185612ac4565b6130ae6020830184613062565b9392505050565b6130be81612ab8565b81146130c957600080fd5b50565b6000813590506130db816130b5565b92915050565b600080604083850312156130f8576130f761297a565b5b600061310685828601612c94565b9250506020613117858286016130cc565b9150509250929050565b600067ffffffffffffffff82111561313c5761313b612cf3565b5b61314582612b70565b9050602081019050919050565b600061316561316084613121565b612d53565b90508281526020810184848401111561318157613180612cee565b5b61318c848285612d9f565b509392505050565b600082601f8301126131a9576131a8612ce9565b5b81356131b9848260208601613152565b91505092915050565b600080600080608085870312156131dc576131db61297a565b5b60006131ea87828801612c94565b94505060206131fb87828801612c94565b935050604061320c878288016129a5565b925050606085013567ffffffffffffffff81111561322d5761322c61297f565b5b61323987828801613194565b91505092959194509250565b600082825260208201905092915050565b600061326182612b2a565b61326b8185613245565b935061327b818560208601612b46565b61328481612b70565b840191505092915050565b60006060830160008301516132a76000860182612f70565b50602083015184820360208601526132bf8282613256565b915050604083015184820360408601526132d98282613256565b9150508091505092915050565b60006020820190508181036000830152613300818461328f565b905092915050565b600081519050919050565b600082825260208201905092915050565b6000819050602082019050919050565b600060608301600083015161334c6000860182612f70565b50602083015184820360208601526133648282613256565b9150506040830151848203604086015261337e8282613256565b9150508091505092915050565b60006133978383613334565b905092915050565b6000602082019050919050565b60006133b782613308565b6133c18185613313565b9350836020820285016133d385613324565b8060005b8581101561340f57848403895281516133f0858261338b565b94506133fb8361339f565b925060208a019950506001810190506133d7565b50829750879550505050505092915050565b6000602082019050818103600083015261343b81846133ac565b905092915050565b6000806040838503121561345a5761345961297a565b5b600061346885828601612c94565b925050602061347985828601612c94565b9150509250929050565b600081519050919050565b600082825260208201905092915050565b6000819050602082019050919050565b6134b881612c41565b82525050565b6080820160008201516134d460008501826134af565b5060208201516134e76020850182612f70565b5060408201516134fa6040850182612f7f565b50606082015161350d6060850182612f70565b50505050565b600061351f83836134be565b60808301905092915050565b6000602082019050919050565b600061354382613483565b61354d818561348e565b93506135588361349f565b8060005b838110156135895781516135708882613513565b975061357b8361352b565b92505060018101905061355c565b5085935050505092915050565b600060208201905081810360008301526135b08184613538565b905092915050565b7f4e487b7100000000000000000000000000000000000000000000000000000000600052603260045260246000fd5b7f4d6f7669652063616e6e6f742062652072617465642074776963650000000000600082015250565b600061361d601b83612b35565b9150613628826135e7565b602082019050919050565b6000602082019050818103600083015261364c81613610565b9050919050565b7f4e487b7100000000000000000000000000000000000000000000000000000000600052601160045260246000fd5b600061368d82612984565b91507fffffffffffffffffffffffffffffffffffffffffffffffffffffffffffffffff82036136bf576136be613653565b5b600182019050919050565b7f4e487b7100000000000000000000000000000000000000000000000000000000600052602260045260246000fd5b6000600282049050600182168061371157607f821691505b602082108103613724576137236136ca565b5b50919050565b7f4552433732313a20617070726f76616c20746f2063757272656e74206f776e6560008201527f7200000000000000000000000000000000000000000000000000000000000000602082015250565b6000613786602183612b35565b91506137918261372a565b604082019050919050565b600060208201905081810360008301526137b581613779565b9050919050565b7f4552433732313a20617070726f76652063616c6c6572206973206e6f7420746f60008201527f6b656e206f776e6572206f7220617070726f76656420666f7220616c6c000000602082015250565b6000613818603d83612b35565b9150613823826137bc565b604082019050919050565b600060208201905081810360008301526138478161380b565b9050919050565b60008190508160005260206000209050919050565b60006020601f8301049050919050565b600082821b905092915050565b6000600883026138b07fffffffffffffffffffffffffffffffffffffffffffffffffffffffffffffffff82613873565b6138ba8683613873565b95508019841693508086168417925050509392505050565b6000819050919050565b60006138f76138f26138ed84612984565b6138d2565b612984565b9050919050565b6000819050919050565b613911836138dc565b61392561391d826138fe565b848454613880565b825550505050565b600090565b61393a61392d565b613945818484613908565b505050565b5b818110156139695761395e600082613932565b60018101905061394b565b5050565b601f8211156139ae5761397f8161384e565b61398884613863565b81016020851015613997578190505b6139ab6139a385613863565b83018261394a565b50505b505050565b600082821c905092915050565b60006139d1600019846008026139b3565b1980831691505092915050565b60006139ea83836139c0565b9150826002028217905092915050565b613a0382612b2a565b67ffffffffffffffff811115613a1c57613a1b612cf3565b5b613a2682546136f9565b613a3182828561396d565b600060209050601f831160018114613a645760008415613a52578287015190505b613a5c85826139de565b865550613ac4565b601f198416613a728661384e565b60005b82811015613a9a57848901518255600182019150602085019450602081019050613a75565b86831015613ab75784890151613ab3601f8916826139c0565b8355505b6001600288020188555050505b505050505050565b7f4552433732313a2063616c6c6572206973206e6f7420746f6b656e206f776e6560008201527f72206f7220617070726f76656400000000000000000000000000000000000000602082015250565b6000613b28602d83612b35565b9150613b3382613acc565b604082019050919050565b60006020820190508181036000830152613b5781613b1b565b9050919050565b7f4552433732313a20696e76616c696420746f6b656e2049440000000000000000600082015250565b6000613b94601883612b35565b9150613b9f82613b5e565b602082019050919050565b60006020820190508181036000830152613bc381613b87565b9050919050565b6000613bd582612984565b9150613be083612984565b9250828201905080821115613bf857613bf7613653565b5b92915050565b7f4e487b7100000000000000000000000000000000000000000000000000000000600052601260045260246000fd5b6000613c3882612984565b9150613c4383612984565b925082613c5357613c52613bfe565b5b828204905092915050565b7f4552433732313a2061646472657373207a65726f206973206e6f74206120766160008201527f6c6964206f776e65720000000000000000000000000000000000000000000000602082015250565b6000613cba602983612b35565b9150613cc582613c5e565b604082019050919050565b60006020820190508181036000830152613ce981613cad565b9050919050565b600081905092915050565b6000613d0682612b2a565b613d108185613cf0565b9350613d20818560208601612b46565b80840191505092915050565b6000613d388285613cfb565b9150613d448284613cfb565b91508190509392505050565b7f4552433732313a206d696e7420746f20746865207a65726f2061646472657373600082015250565b6000613d86602083612b35565b9150613d9182613d50565b602082019050919050565b60006020820190508181036000830152613db581613d79565b9050919050565b7f4552433732313a20746f6b656e20616c7265616479206d696e74656400000000600082015250565b6000613df2601c83612b35565b9150613dfd82613dbc565b602082019050919050565b60006020820190508181036000830152613e2181613de5565b9050919050565b7f45524337323155524953746f726167653a2055524920736574206f66206e6f6e60008201527f6578697374656e7420746f6b656e000000000000000000000000000000000000602082015250565b6000613e84602e83612b35565b9150613e8f82613e28565b604082019050919050565b60006020820190508181036000830152613eb381613e77565b9050919050565b7f4552433732313a207472616e736665722066726f6d20696e636f72726563742060008201527f6f776e6572000000000000000000000000000000000000000000000000000000602082015250565b6000613f16602583612b35565b9150613f2182613eba565b604082019050919050565b60006020820190508181036000830152613f4581613f09565b9050919050565b7f4552433732313a207472616e7366657220746f20746865207a65726f2061646460008201527f7265737300000000000000000000000000000000000000000000000000000000602082015250565b6000613fa8602483612b35565b9150613fb382613f4c565b604082019050919050565b60006020820190508181036000830152613fd781613f9b565b9050919050565b7f4552433732313a20617070726f766520746f2063616c6c657200000000000000600082015250565b6000614014601983612b35565b915061401f82613fde565b602082019050919050565b6000602082019050818103600083015261404381614007565b9050919050565b7f4552433732313a207472616e7366657220746f206e6f6e20455243373231526560008201527f63656976657220696d706c656d656e7465720000000000000000000000000000602082015250565b60006140a6603283612b35565b91506140b18261404a565b604082019050919050565b600060208201905081810360008301526140d581614099565b9050919050565b60006140e782612984565b91506140f283612984565b925082820390508181111561410a57614109613653565b5b92915050565b600081519050919050565b600082825260208201905092915050565b600061413782614110565b614141818561411b565b9350614151818560208601612b46565b61415a81612b70565b840191505092915050565b600060808201905061417a6000830187612c53565b6141876020830186612c53565b6141946040830185612b1b565b81810360608301526141a6818461412c565b905095945050505050565b6000815190506141c081612a5f565b92915050565b6000602082840312156141dc576141db61297a565b5b60006141ea848285016141b1565b9150509291505056fea2646970667358221220f845fbd803fced1c31e0f354273c67e33547e0b4f2413e9e5b93a298b9247af264736f6c63430008110033",
  "devdoc": {
    "kind": "dev",
    "methods": {
      "approve(address,uint256)": {
        "details": "See {IERC721-approve}."
      },
      "balanceOf(address)": {
        "details": "See {IERC721-balanceOf}."
      },
      "getApproved(uint256)": {
        "details": "See {IERC721-getApproved}."
      },
      "isApprovedForAll(address,address)": {
        "details": "See {IERC721-isApprovedForAll}."
      },
      "name()": {
        "details": "See {IERC721Metadata-name}."
      },
      "ownerOf(uint256)": {
        "details": "See {IERC721-ownerOf}."
      },
      "safeTransferFrom(address,address,uint256)": {
        "details": "See {IERC721-safeTransferFrom}."
      },
      "safeTransferFrom(address,address,uint256,bytes)": {
        "details": "See {IERC721-safeTransferFrom}."
      },
      "setApprovalForAll(address,bool)": {
        "details": "See {IERC721-setApprovalForAll}."
      },
      "supportsInterface(bytes4)": {
        "details": "See {IERC165-supportsInterface}."
      },
      "symbol()": {
        "details": "See {IERC721Metadata-symbol}."
      },
      "tokenURI(uint256)": {
        "details": "See {IERC721Metadata-tokenURI}."
      },
      "transferFrom(address,address,uint256)": {
        "details": "See {IERC721-transferFrom}."
      }
    },
    "version": 1
  },
  "userdoc": {
    "kind": "user",
    "methods": {},
    "version": 1
  },
  "storageLayout": {
    "storage": [
      {
        "astId": 25,
        "contract": "contracts/MoviesNFT.sol:MoviesNFT",
        "label": "_name",
        "offset": 0,
        "slot": "0",
        "type": "t_string_storage"
      },
      {
        "astId": 27,
        "contract": "contracts/MoviesNFT.sol:MoviesNFT",
        "label": "_symbol",
        "offset": 0,
        "slot": "1",
        "type": "t_string_storage"
      },
      {
        "astId": 31,
        "contract": "contracts/MoviesNFT.sol:MoviesNFT",
        "label": "_owners",
        "offset": 0,
        "slot": "2",
        "type": "t_mapping(t_uint256,t_address)"
      },
      {
        "astId": 35,
        "contract": "contracts/MoviesNFT.sol:MoviesNFT",
        "label": "_balances",
        "offset": 0,
        "slot": "3",
        "type": "t_mapping(t_address,t_uint256)"
      },
      {
        "astId": 39,
        "contract": "contracts/MoviesNFT.sol:MoviesNFT",
        "label": "_tokenApprovals",
        "offset": 0,
        "slot": "4",
        "type": "t_mapping(t_uint256,t_address)"
      },
      {
        "astId": 45,
        "contract": "contracts/MoviesNFT.sol:MoviesNFT",
        "label": "_operatorApprovals",
        "offset": 0,
        "slot": "5",
        "type": "t_mapping(t_address,t_mapping(t_address,t_bool))"
      },
      {
        "astId": 1091,
        "contract": "contracts/MoviesNFT.sol:MoviesNFT",
        "label": "_tokenURIs",
        "offset": 0,
        "slot": "6",
        "type": "t_mapping(t_uint256,t_string_storage)"
      },
      {
        "astId": 2745,
        "contract": "contracts/MoviesNFT.sol:MoviesNFT",
        "label": "_tokenIds",
        "offset": 0,
        "slot": "7",
        "type": "t_struct(Counter)1588_storage"
      },
      {
        "astId": 2770,
        "contract": "contracts/MoviesNFT.sol:MoviesNFT",
        "label": "moviesArr",
        "offset": 0,
        "slot": "8",
        "type": "t_array(t_struct(movieData)2752_storage)dyn_storage"
      },
      {
        "astId": 2775,
        "contract": "contracts/MoviesNFT.sol:MoviesNFT",
        "label": "movies",
        "offset": 0,
        "slot": "9",
        "type": "t_mapping(t_uint256,t_struct(movieData)2752_storage)"
      },
      {
        "astId": 2779,
        "contract": "contracts/MoviesNFT.sol:MoviesNFT",
        "label": "ratings",
        "offset": 0,
        "slot": "10",
        "type": "t_array(t_struct(rating)2761_storage)dyn_storage"
      },
      {
        "astId": 2784,
        "contract": "contracts/MoviesNFT.sol:MoviesNFT",
        "label": "userRating",
        "offset": 0,
        "slot": "11",
        "type": "t_mapping(t_address,t_struct(rating)2761_storage)"
      },
      {
        "astId": 2789,
        "contract": "contracts/MoviesNFT.sol:MoviesNFT",
        "label": "userMovieRating",
        "offset": 0,
        "slot": "12",
        "type": "t_mapping(t_address,t_array(t_uint256)dyn_storage)"
      }
    ],
    "types": {
      "t_address": {
        "encoding": "inplace",
        "label": "address",
        "numberOfBytes": "20"
      },
      "t_array(t_struct(movieData)2752_storage)dyn_storage": {
        "base": "t_struct(movieData)2752_storage",
        "encoding": "dynamic_array",
        "label": "struct MoviesNFT.movieData[]",
        "numberOfBytes": "32"
      },
      "t_array(t_struct(rating)2761_storage)dyn_storage": {
        "base": "t_struct(rating)2761_storage",
        "encoding": "dynamic_array",
        "label": "struct MoviesNFT.rating[]",
        "numberOfBytes": "32"
      },
      "t_array(t_uint256)dyn_storage": {
        "base": "t_uint256",
        "encoding": "dynamic_array",
        "label": "uint256[]",
        "numberOfBytes": "32"
      },
      "t_bool": {
        "encoding": "inplace",
        "label": "bool",
        "numberOfBytes": "1"
      },
      "t_mapping(t_address,t_array(t_uint256)dyn_storage)": {
        "encoding": "mapping",
        "key": "t_address",
        "label": "mapping(address => uint256[])",
        "numberOfBytes": "32",
        "value": "t_array(t_uint256)dyn_storage"
      },
      "t_mapping(t_address,t_bool)": {
        "encoding": "mapping",
        "key": "t_address",
        "label": "mapping(address => bool)",
        "numberOfBytes": "32",
        "value": "t_bool"
      },
      "t_mapping(t_address,t_mapping(t_address,t_bool))": {
        "encoding": "mapping",
        "key": "t_address",
        "label": "mapping(address => mapping(address => bool))",
        "numberOfBytes": "32",
        "value": "t_mapping(t_address,t_bool)"
      },
      "t_mapping(t_address,t_struct(rating)2761_storage)": {
        "encoding": "mapping",
        "key": "t_address",
        "label": "mapping(address => struct MoviesNFT.rating)",
        "numberOfBytes": "32",
        "value": "t_struct(rating)2761_storage"
      },
      "t_mapping(t_address,t_uint256)": {
        "encoding": "mapping",
        "key": "t_address",
        "label": "mapping(address => uint256)",
        "numberOfBytes": "32",
        "value": "t_uint256"
      },
      "t_mapping(t_uint256,t_address)": {
        "encoding": "mapping",
        "key": "t_uint256",
        "label": "mapping(uint256 => address)",
        "numberOfBytes": "32",
        "value": "t_address"
      },
      "t_mapping(t_uint256,t_string_storage)": {
        "encoding": "mapping",
        "key": "t_uint256",
        "label": "mapping(uint256 => string)",
        "numberOfBytes": "32",
        "value": "t_string_storage"
      },
      "t_mapping(t_uint256,t_struct(movieData)2752_storage)": {
        "encoding": "mapping",
        "key": "t_uint256",
        "label": "mapping(uint256 => struct MoviesNFT.movieData)",
        "numberOfBytes": "32",
        "value": "t_struct(movieData)2752_storage"
      },
      "t_string_storage": {
        "encoding": "bytes",
        "label": "string",
        "numberOfBytes": "32"
      },
      "t_struct(Counter)1588_storage": {
        "encoding": "inplace",
        "label": "struct Counters.Counter",
        "members": [
          {
            "astId": 1587,
            "contract": "contracts/MoviesNFT.sol:MoviesNFT",
            "label": "_value",
            "offset": 0,
            "slot": "0",
            "type": "t_uint256"
          }
        ],
        "numberOfBytes": "32"
      },
      "t_struct(movieData)2752_storage": {
        "encoding": "inplace",
        "label": "struct MoviesNFT.movieData",
        "members": [
          {
            "astId": 2747,
            "contract": "contracts/MoviesNFT.sol:MoviesNFT",
            "label": "movieNumber",
            "offset": 0,
            "slot": "0",
            "type": "t_uint256"
          },
          {
            "astId": 2749,
            "contract": "contracts/MoviesNFT.sol:MoviesNFT",
            "label": "movieName",
            "offset": 0,
            "slot": "1",
            "type": "t_string_storage"
          },
          {
            "astId": 2751,
            "contract": "contracts/MoviesNFT.sol:MoviesNFT",
            "label": "ipfsHash",
            "offset": 0,
            "slot": "2",
            "type": "t_string_storage"
          }
        ],
        "numberOfBytes": "96"
      },
      "t_struct(rating)2761_storage": {
        "encoding": "inplace",
        "label": "struct MoviesNFT.rating",
        "members": [
          {
            "astId": 2754,
            "contract": "contracts/MoviesNFT.sol:MoviesNFT",
            "label": "ratingOwner",
            "offset": 0,
            "slot": "0",
            "type": "t_address"
          },
          {
            "astId": 2756,
            "contract": "contracts/MoviesNFT.sol:MoviesNFT",
            "label": "movieNumber",
            "offset": 0,
            "slot": "1",
            "type": "t_uint256"
          },
          {
            "astId": 2758,
            "contract": "contracts/MoviesNFT.sol:MoviesNFT",
            "label": "ratingVal",
            "offset": 0,
            "slot": "2",
            "type": "t_uint8"
          },
          {
            "astId": 2760,
            "contract": "contracts/MoviesNFT.sol:MoviesNFT",
            "label": "createdAt",
            "offset": 0,
            "slot": "3",
            "type": "t_uint256"
          }
        ],
        "numberOfBytes": "128"
      },
      "t_uint256": {
        "encoding": "inplace",
        "label": "uint256",
        "numberOfBytes": "32"
      },
      "t_uint8": {
        "encoding": "inplace",
        "label": "uint8",
        "numberOfBytes": "1"
      }
    }
  }
}