{
  "address": "0xa329264282191A80Cb2ed4384eEf5B1455A9A1e9",
  "abi": [
    {
      "inputs": [],
      "stateMutability": "nonpayable",
      "type": "constructor"
    },
    {
      "anonymous": false,
      "inputs": [
        {
          "indexed": true,
          "internalType": "address",
          "name": "owner",
          "type": "address"
        },
        {
          "indexed": true,
          "internalType": "address",
          "name": "approved",
          "type": "address"
        },
        {
          "indexed": true,
          "internalType": "uint256",
          "name": "tokenId",
          "type": "uint256"
        }
      ],
      "name": "Approval",
      "type": "event"
    },
    {
      "anonymous": false,
      "inputs": [
        {
          "indexed": true,
          "internalType": "address",
          "name": "owner",
          "type": "address"
        },
        {
          "indexed": true,
          "internalType": "address",
          "name": "operator",
          "type": "address"
        },
        {
          "indexed": false,
          "internalType": "bool",
          "name": "approved",
          "type": "bool"
        }
      ],
      "name": "ApprovalForAll",
      "type": "event"
    },
    {
      "anonymous": false,
      "inputs": [
        {
          "indexed": true,
          "internalType": "address",
          "name": "from",
          "type": "address"
        },
        {
          "indexed": true,
          "internalType": "address",
          "name": "to",
          "type": "address"
        },
        {
          "indexed": true,
          "internalType": "uint256",
          "name": "tokenId",
          "type": "uint256"
        }
      ],
      "name": "Transfer",
      "type": "event"
    },
    {
      "inputs": [
        {
          "internalType": "address",
          "name": "to",
          "type": "address"
        },
        {
          "internalType": "uint256",
          "name": "tokenId",
          "type": "uint256"
        }
      ],
      "name": "approve",
      "outputs": [],
      "stateMutability": "nonpayable",
      "type": "function"
    },
    {
      "inputs": [
        {
          "internalType": "address",
          "name": "owner",
          "type": "address"
        }
      ],
      "name": "balanceOf",
      "outputs": [
        {
          "internalType": "uint256",
          "name": "",
          "type": "uint256"
        }
      ],
      "stateMutability": "view",
      "type": "function"
    },
    {
      "inputs": [
        {
          "internalType": "uint256",
          "name": "_movieNum",
          "type": "uint256"
        },
        {
          "internalType": "uint8",
          "name": "ratingVal",
          "type": "uint8"
        }
      ],
      "name": "castMovieRating",
      "outputs": [],
      "stateMutability": "nonpayable",
      "type": "function"
    },
    {
      "inputs": [
        {
          "internalType": "address",
          "name": "creator",
          "type": "address"
        },
        {
          "internalType": "string",
          "name": "name",
          "type": "string"
        },
        {
          "internalType": "string",
          "name": "ipfsHash",
          "type": "string"
        }
      ],
      "name": "createNFT",
      "outputs": [
        {
          "internalType": "uint256",
          "name": "",
          "type": "uint256"
        }
      ],
      "stateMutability": "nonpayable",
      "type": "function"
    },
    {
      "inputs": [],
      "name": "getAllMovies",
      "outputs": [
        {
          "components": [
            {
              "internalType": "uint256",
              "name": "movieNumber",
              "type": "uint256"
            },
            {
              "internalType": "string",
              "name": "movieName",
              "type": "string"
            },
            {
              "internalType": "string",
              "name": "ipfsHash",
              "type": "string"
            }
          ],
          "internalType": "struct MoviesNFT.movieData[]",
          "name": "",
          "type": "tuple[]"
        }
      ],
      "stateMutability": "view",
      "type": "function"
    },
    {
      "inputs": [
        {
          "internalType": "uint256",
          "name": "tokenId",
          "type": "uint256"
        }
      ],
      "name": "getApproved",
      "outputs": [
        {
          "internalType": "address",
          "name": "",
          "type": "address"
        }
      ],
      "stateMutability": "view",
      "type": "function"
    },
    {
      "inputs": [
        {
          "internalType": "uint256",
          "name": "_movieNum",
          "type": "uint256"
        }
      ],
      "name": "getAvgMovieRating",
      "outputs": [
        {
          "internalType": "uint8",
          "name": "",
          "type": "uint8"
        }
      ],
      "stateMutability": "view",
      "type": "function"
    },
    {
      "inputs": [
        {
          "internalType": "uint256",
          "name": "_movieNum",
          "type": "uint256"
        }
      ],
      "name": "getMovieByNumber",
      "outputs": [
        {
          "components": [
            {
              "internalType": "uint256",
              "name": "movieNumber",
              "type": "uint256"
            },
            {
              "internalType": "string",
              "name": "movieName",
              "type": "string"
            },
            {
              "internalType": "string",
              "name": "ipfsHash",
              "type": "string"
            }
          ],
          "internalType": "struct MoviesNFT.movieData",
          "name": "",
          "type": "tuple"
        }
      ],
      "stateMutability": "view",
      "type": "function"
    },
    {
      "inputs": [
        {
          "internalType": "address",
          "name": "userAdd",
          "type": "address"
        }
      ],
      "name": "getUserRating",
      "outputs": [
        {
          "components": [
            {
              "internalType": "uint256",
              "name": "movieNumber",
              "type": "uint256"
            },
            {
              "internalType": "uint8",
              "name": "ratingVal",
              "type": "uint8"
            }
          ],
          "internalType": "struct MoviesNFT.userRatingVal[]",
          "name": "",
          "type": "tuple[]"
        }
      ],
      "stateMutability": "view",
      "type": "function"
    },
    {
      "inputs": [
        {
          "internalType": "uint256",
          "name": "_movieNum",
          "type": "uint256"
        }
      ],
      "name": "hasUserRated",
      "outputs": [
        {
          "internalType": "bool",
          "name": "",
          "type": "bool"
        },
        {
          "internalType": "uint8",
          "name": "",
          "type": "uint8"
        }
      ],
      "stateMutability": "view",
      "type": "function"
    },
    {
      "inputs": [
        {
          "internalType": "address",
          "name": "owner",
          "type": "address"
        },
        {
          "internalType": "address",
          "name": "operator",
          "type": "address"
        }
      ],
      "name": "isApprovedForAll",
      "outputs": [
        {
          "internalType": "bool",
          "name": "",
          "type": "bool"
        }
      ],
      "stateMutability": "view",
      "type": "function"
    },
    {
      "inputs": [
        {
          "internalType": "uint256",
          "name": "",
          "type": "uint256"
        }
      ],
      "name": "movies",
      "outputs": [
        {
          "internalType": "uint256",
          "name": "movieNumber",
          "type": "uint256"
        },
        {
          "internalType": "string",
          "name": "movieName",
          "type": "string"
        },
        {
          "internalType": "string",
          "name": "ipfsHash",
          "type": "string"
        }
      ],
      "stateMutability": "view",
      "type": "function"
    },
    {
      "inputs": [
        {
          "internalType": "uint256",
          "name": "",
          "type": "uint256"
        }
      ],
      "name": "moviesArr",
      "outputs": [
        {
          "internalType": "uint256",
          "name": "movieNumber",
          "type": "uint256"
        },
        {
          "internalType": "string",
          "name": "movieName",
          "type": "string"
        },
        {
          "internalType": "string",
          "name": "ipfsHash",
          "type": "string"
        }
      ],
      "stateMutability": "view",
      "type": "function"
    },
    {
      "inputs": [],
      "name": "name",
      "outputs": [
        {
          "internalType": "string",
          "name": "",
          "type": "string"
        }
      ],
      "stateMutability": "view",
      "type": "function"
    },
    {
      "inputs": [
        {
          "internalType": "uint256",
          "name": "tokenId",
          "type": "uint256"
        }
      ],
      "name": "ownerOf",
      "outputs": [
        {
          "internalType": "address",
          "name": "",
          "type": "address"
        }
      ],
      "stateMutability": "view",
      "type": "function"
    },
    {
      "inputs": [
        {
          "internalType": "address",
          "name": "from",
          "type": "address"
        },
        {
          "internalType": "address",
          "name": "to",
          "type": "address"
        },
        {
          "internalType": "uint256",
          "name": "tokenId",
          "type": "uint256"
        }
      ],
      "name": "safeTransferFrom",
      "outputs": [],
      "stateMutability": "nonpayable",
      "type": "function"
    },
    {
      "inputs": [
        {
          "internalType": "address",
          "name": "from",
          "type": "address"
        },
        {
          "internalType": "address",
          "name": "to",
          "type": "address"
        },
        {
          "internalType": "uint256",
          "name": "tokenId",
          "type": "uint256"
        },
        {
          "internalType": "bytes",
          "name": "data",
          "type": "bytes"
        }
      ],
      "name": "safeTransferFrom",
      "outputs": [],
      "stateMutability": "nonpayable",
      "type": "function"
    },
    {
      "inputs": [
        {
          "internalType": "address",
          "name": "operator",
          "type": "address"
        },
        {
          "internalType": "bool",
          "name": "approved",
          "type": "bool"
        }
      ],
      "name": "setApprovalForAll",
      "outputs": [],
      "stateMutability": "nonpayable",
      "type": "function"
    },
    {
      "inputs": [
        {
          "internalType": "bytes4",
          "name": "interfaceId",
          "type": "bytes4"
        }
      ],
      "name": "supportsInterface",
      "outputs": [
        {
          "internalType": "bool",
          "name": "",
          "type": "bool"
        }
      ],
      "stateMutability": "view",
      "type": "function"
    },
    {
      "inputs": [],
      "name": "symbol",
      "outputs": [
        {
          "internalType": "string",
          "name": "",
          "type": "string"
        }
      ],
      "stateMutability": "view",
      "type": "function"
    },
    {
      "inputs": [
        {
          "internalType": "uint256",
          "name": "tokenId",
          "type": "uint256"
        }
      ],
      "name": "tokenURI",
      "outputs": [
        {
          "internalType": "string",
          "name": "",
          "type": "string"
        }
      ],
      "stateMutability": "view",
      "type": "function"
    },
    {
      "inputs": [
        {
          "internalType": "address",
          "name": "from",
          "type": "address"
        },
        {
          "internalType": "address",
          "name": "to",
          "type": "address"
        },
        {
          "internalType": "uint256",
          "name": "tokenId",
          "type": "uint256"
        }
      ],
      "name": "transferFrom",
      "outputs": [],
      "stateMutability": "nonpayable",
      "type": "function"
    }
  ],
  "transactionHash": "0xe5d423532d5652edb10a63b497f5856c518bdd608415479fbd4dd290ee77f045",
  "args": [],
  "numDeployments": 5,
  "solcInputHash": "544ad010e8caecb1bf6a7ca31962022b",
  "bytecode": "0x60806040523480156200001157600080fd5b506040518060400160405280600881526020017f4d6f7669654e46540000000000000000000000000000000000000000000000008152506040518060400160405280600481526020017f4d4e46540000000000000000000000000000000000000000000000000000000081525081600090816200008f919062000324565b508060019081620000a1919062000324565b5050506200040b565b600081519050919050565b7f4e487b7100000000000000000000000000000000000000000000000000000000600052604160045260246000fd5b7f4e487b7100000000000000000000000000000000000000000000000000000000600052602260045260246000fd5b600060028204905060018216806200012c57607f821691505b602082108103620001425762000141620000e4565b5b50919050565b60008190508160005260206000209050919050565b60006020601f8301049050919050565b600082821b905092915050565b600060088302620001ac7fffffffffffffffffffffffffffffffffffffffffffffffffffffffffffffffff826200016d565b620001b886836200016d565b95508019841693508086168417925050509392505050565b6000819050919050565b6000819050919050565b600062000205620001ff620001f984620001d0565b620001da565b620001d0565b9050919050565b6000819050919050565b6200022183620001e4565b6200023962000230826200020c565b8484546200017a565b825550505050565b600090565b6200025062000241565b6200025d81848462000216565b505050565b5b8181101562000285576200027960008262000246565b60018101905062000263565b5050565b601f821115620002d4576200029e8162000148565b620002a9846200015d565b81016020851015620002b9578190505b620002d1620002c8856200015d565b83018262000262565b50505b505050565b600082821c905092915050565b6000620002f960001984600802620002d9565b1980831691505092915050565b6000620003148383620002e6565b9150826002028217905092915050565b6200032f82620000aa565b67ffffffffffffffff8111156200034b576200034a620000b5565b5b62000357825462000113565b6200036482828562000289565b600060209050601f8311600181146200039c576000841562000387578287015190505b62000393858262000306565b86555062000403565b601f198416620003ac8662000148565b60005b82811015620003d657848901518255600182019150602085019450602081019050620003af565b86831015620003f65784890151620003f2601f891682620002e6565b8355505b6001600288020188555050505b505050505050565b613fe5806200041b6000396000f3fe608060405234801561001057600080fd5b50600436106101415760003560e01c80636352211e116100b8578063a22cb4651161007c578063a22cb465146103d7578063b88d4fde146103f3578063c87b56dd1461040f578063de5d9f3e1461043f578063e16f00651461046f578063e985e9c51461048d57610141565b80636352211e146102f85780636b3f30d41461032857806370a082311461035857806385d871e41461038857806395d89b41146103b957610141565b8063095ea7b31161010a578063095ea7b3146102125780630b564a7c1461022e57806323b872dd1461025e578063404ebf6c1461027a57806342842e0e146102ac578063460168c3146102c857610141565b80620a09c01461014657806301ffc9a71461016257806303148ded1461019257806306fdde03146101c4578063081812fc146101e2575b600080fd5b610160600480360381019061015b91906128e4565b6104bd565b005b61017c6004803603810190610177919061297c565b61077b565b60405161018991906129c4565b60405180910390f35b6101ac60048036038101906101a791906129df565b61085d565b6040516101bb93929190612aab565b60405180910390f35b6101cc6109a7565b6040516101d99190612af0565b60405180910390f35b6101fc60048036038101906101f791906129df565b610a39565b6040516102099190612b53565b60405180910390f35b61022c60048036038101906102279190612b9a565b610a7f565b005b61024860048036038101906102439190612d0f565b610b96565b6040516102559190612d9a565b60405180910390f35b61027860048036038101906102739190612db5565b610ca0565b005b610294600480360381019061028f91906129df565b610d00565b6040516102a393929190612aab565b60405180910390f35b6102c660048036038101906102c19190612db5565b610e3a565b005b6102e260048036038101906102dd9190612e08565b610e5a565b6040516102ef9190612f31565b60405180910390f35b610312600480360381019061030d91906129df565b610fff565b60405161031f9190612b53565b60405180910390f35b610342600480360381019061033d91906129df565b611085565b60405161034f9190612f62565b60405180910390f35b610372600480360381019061036d9190612e08565b61114a565b60405161037f9190612d9a565b60405180910390f35b6103a2600480360381019061039d91906129df565b611201565b6040516103b0929190612f7d565b60405180910390f35b6103c161131d565b6040516103ce9190612af0565b60405180910390f35b6103f160048036038101906103ec9190612fd2565b6113af565b005b61040d600480360381019061040891906130b3565b6113c5565b005b610429600480360381019061042491906129df565b611427565b6040516104369190612af0565b60405180910390f35b610459600480360381019061045491906129df565b611539565b60405161046691906131d7565b60405180910390f35b610477611694565b6040516104849190613312565b60405180910390f35b6104a760048036038101906104a29190613334565b611821565b6040516104b491906129c4565b60405180910390f35b60005b600a805490508110156105ce573373ffffffffffffffffffffffffffffffffffffffff16600a82815481106104f8576104f7613374565b5b906000526020600020906004020160000160009054906101000a900473ffffffffffffffffffffffffffffffffffffffff1673ffffffffffffffffffffffffffffffffffffffff16148015610571575082600a828154811061055d5761055c613374565b5b906000526020600020906004020160010154145b156105bb5760026001146105ba576040517f08c379a00000000000000000000000000000000000000000000000000000000081526004016105b1906133ef565b60405180910390fd5b5b80806105c69061343e565b9150506104c0565b50600060405180608001604052803373ffffffffffffffffffffffffffffffffffffffff1681526020018481526020018360ff16815260200142815250905080600b60003373ffffffffffffffffffffffffffffffffffffffff1673ffffffffffffffffffffffffffffffffffffffff16815260200190815260200160002060008201518160000160006101000a81548173ffffffffffffffffffffffffffffffffffffffff021916908373ffffffffffffffffffffffffffffffffffffffff1602179055506020820151816001015560408201518160020160006101000a81548160ff021916908360ff16021790555060608201518160030155905050600a81908060018154018082558091505060019003906000526020600020906004020160009091909190915060008201518160000160006101000a81548173ffffffffffffffffffffffffffffffffffffffff021916908373ffffffffffffffffffffffffffffffffffffffff1602179055506020820151816001015560408201518160020160006101000a81548160ff021916908360ff160217905550606082015181600301555050505050565b60007f80ac58cd000000000000000000000000000000000000000000000000000000007bffffffffffffffffffffffffffffffffffffffffffffffffffffffff1916827bffffffffffffffffffffffffffffffffffffffffffffffffffffffff1916148061084657507f5b5e139f000000000000000000000000000000000000000000000000000000007bffffffffffffffffffffffffffffffffffffffffffffffffffffffff1916827bffffffffffffffffffffffffffffffffffffffffffffffffffffffff1916145b806108565750610855826118b5565b5b9050919050565b6008818154811061086d57600080fd5b9060005260206000209060030201600091509050806000015490806001018054610896906134b5565b80601f01602080910402602001604051908101604052809291908181526020018280546108c2906134b5565b801561090f5780601f106108e45761010080835404028352916020019161090f565b820191906000526020600020905b8154815290600101906020018083116108f257829003601f168201915b505050505090806002018054610924906134b5565b80601f0160208091040260200160405190810160405280929190818152602001828054610950906134b5565b801561099d5780601f106109725761010080835404028352916020019161099d565b820191906000526020600020905b81548152906001019060200180831161098057829003601f168201915b5050505050905083565b6060600080546109b6906134b5565b80601f01602080910402602001604051908101604052809291908181526020018280546109e2906134b5565b8015610a2f5780601f10610a0457610100808354040283529160200191610a2f565b820191906000526020600020905b815481529060010190602001808311610a1257829003601f168201915b5050505050905090565b6000610a448261191f565b6004600083815260200190815260200160002060009054906101000a900473ffffffffffffffffffffffffffffffffffffffff169050919050565b6000610a8a82610fff565b90508073ffffffffffffffffffffffffffffffffffffffff168373ffffffffffffffffffffffffffffffffffffffff1603610afa576040517f08c379a0000000000000000000000000000000000000000000000000000000008152600401610af190613558565b60405180910390fd5b8073ffffffffffffffffffffffffffffffffffffffff16610b1961196a565b73ffffffffffffffffffffffffffffffffffffffff161480610b485750610b4781610b4261196a565b611821565b5b610b87576040517f08c379a0000000000000000000000000000000000000000000000000000000008152600401610b7e906135ea565b60405180910390fd5b610b918383611972565b505050565b6000610ba26007611a2b565b6000610bae6007611a41565b9050600060405180606001604052808381526020018681526020018581525090508060096000848152602001908152602001600020600082015181600001556020820151816001019081610c0291906137b6565b506040820151816002019081610c1891906137b6565b509050506008819080600181540180825580915050600190039060005260206000209060030201600090919091909150600082015181600001556020820151816001019081610c6791906137b6565b506040820151816002019081610c7d91906137b6565b505050610c8a8683611a4f565b610c948285611c6c565b81925050509392505050565b610cb1610cab61196a565b82611cd9565b610cf0576040517f08c379a0000000000000000000000000000000000000000000000000000000008152600401610ce7906138fa565b60405180910390fd5b610cfb838383611d6e565b505050565b6009602052806000526040600020600091509050806000015490806001018054610d29906134b5565b80601f0160208091040260200160405190810160405280929190818152602001828054610d55906134b5565b8015610da25780601f10610d7757610100808354040283529160200191610da2565b820191906000526020600020905b815481529060010190602001808311610d8557829003601f168201915b505050505090806002018054610db7906134b5565b80601f0160208091040260200160405190810160405280929190818152602001828054610de3906134b5565b8015610e305780601f10610e0557610100808354040283529160200191610e30565b820191906000526020600020905b815481529060010190602001808311610e1357829003601f168201915b5050505050905083565b610e55838383604051806020016040528060008152506113c5565b505050565b6060600061271067ffffffffffffffff811115610e7a57610e79612be4565b5b604051908082528060200260200182016040528015610eb357816020015b610ea0612823565b815260200190600190039081610e985790505b5090506000805b600a80549050811015610ff4578473ffffffffffffffffffffffffffffffffffffffff16600a8281548110610ef257610ef1613374565b5b906000526020600020906004020160000160009054906101000a900473ffffffffffffffffffffffffffffffffffffffff1673ffffffffffffffffffffffffffffffffffffffff1603610fe15760006040518060400160405280600a8481548110610f6057610f5f613374565b5b9060005260206000209060040201600101548152602001600a8481548110610f8b57610f8a613374565b5b906000526020600020906004020160020160009054906101000a900460ff1660ff16815250905080848481518110610fc657610fc5613374565b5b60200260200101819052508280610fdc9061343e565b935050505b8080610fec9061343e565b915050610eba565b508192505050919050565b60008061100b83612067565b9050600073ffffffffffffffffffffffffffffffffffffffff168173ffffffffffffffffffffffffffffffffffffffff160361107c576040517f08c379a000000000000000000000000000000000000000000000000000000000815260040161107390613966565b60405180910390fd5b80915050919050565b600080600090506000805b600a8054905081101561112e5784600a82815481106110b2576110b1613374565b5b9060005260206000209060040201600101540361111b57600a81815481106110dd576110dc613374565b5b906000526020600020906004020160020160009054906101000a900460ff1660ff168361110a9190613986565b925081806111179061343e565b9250505b80806111269061343e565b915050611090565b506000818361113d91906139e9565b9050809350505050919050565b60008073ffffffffffffffffffffffffffffffffffffffff168273ffffffffffffffffffffffffffffffffffffffff16036111ba576040517f08c379a00000000000000000000000000000000000000000000000000000000081526004016111b190613a8c565b60405180910390fd5b600360008373ffffffffffffffffffffffffffffffffffffffff1673ffffffffffffffffffffffffffffffffffffffff168152602001908152602001600020549050919050565b60008060005b600a8054905081101561130f573373ffffffffffffffffffffffffffffffffffffffff16600a828154811061123f5761123e613374565b5b906000526020600020906004020160000160009054906101000a900473ffffffffffffffffffffffffffffffffffffffff1673ffffffffffffffffffffffffffffffffffffffff161480156112b8575083600a82815481106112a4576112a3613374565b5b906000526020600020906004020160010154145b156112fc576001600a82815481106112d3576112d2613374565b5b906000526020600020906004020160020160009054906101000a900460ff169250925050611318565b80806113079061343e565b915050611207565b50600080915091505b915091565b60606001805461132c906134b5565b80601f0160208091040260200160405190810160405280929190818152602001828054611358906134b5565b80156113a55780601f1061137a576101008083540402835291602001916113a5565b820191906000526020600020905b81548152906001019060200180831161138857829003601f168201915b5050505050905090565b6113c16113ba61196a565b83836120a4565b5050565b6113d66113d061196a565b83611cd9565b611415576040517f08c379a000000000000000000000000000000000000000000000000000000000815260040161140c906138fa565b60405180910390fd5b61142184848484612210565b50505050565b60606114328261191f565b6000600660008481526020019081526020016000208054611452906134b5565b80601f016020809104026020016040519081016040528092919081815260200182805461147e906134b5565b80156114cb5780601f106114a0576101008083540402835291602001916114cb565b820191906000526020600020905b8154815290600101906020018083116114ae57829003601f168201915b5050505050905060006114dc61226c565b905060008151036114f1578192505050611534565b60008251111561152657808260405160200161150e929190613ae8565b60405160208183030381529060405292505050611534565b61152f84612283565b925050505b919050565b611541612840565b6009600083815260200190815260200160002060405180606001604052908160008201548152602001600182018054611579906134b5565b80601f01602080910402602001604051908101604052809291908181526020018280546115a5906134b5565b80156115f25780601f106115c7576101008083540402835291602001916115f2565b820191906000526020600020905b8154815290600101906020018083116115d557829003601f168201915b5050505050815260200160028201805461160b906134b5565b80601f0160208091040260200160405190810160405280929190818152602001828054611637906134b5565b80156116845780601f1061165957610100808354040283529160200191611684565b820191906000526020600020905b81548152906001019060200180831161166757829003601f168201915b5050505050815250509050919050565b60606008805480602002602001604051908101604052809291908181526020016000905b828210156118185783829060005260206000209060030201604051806060016040529081600082015481526020016001820180546116f5906134b5565b80601f0160208091040260200160405190810160405280929190818152602001828054611721906134b5565b801561176e5780601f106117435761010080835404028352916020019161176e565b820191906000526020600020905b81548152906001019060200180831161175157829003601f168201915b50505050508152602001600282018054611787906134b5565b80601f01602080910402602001604051908101604052809291908181526020018280546117b3906134b5565b80156118005780601f106117d557610100808354040283529160200191611800565b820191906000526020600020905b8154815290600101906020018083116117e357829003601f168201915b505050505081525050815260200190600101906116b8565b50505050905090565b6000600560008473ffffffffffffffffffffffffffffffffffffffff1673ffffffffffffffffffffffffffffffffffffffff16815260200190815260200160002060008373ffffffffffffffffffffffffffffffffffffffff1673ffffffffffffffffffffffffffffffffffffffff16815260200190815260200160002060009054906101000a900460ff16905092915050565b60007f01ffc9a7000000000000000000000000000000000000000000000000000000007bffffffffffffffffffffffffffffffffffffffffffffffffffffffff1916827bffffffffffffffffffffffffffffffffffffffffffffffffffffffff1916149050919050565b611928816122eb565b611967576040517f08c379a000000000000000000000000000000000000000000000000000000000815260040161195e90613966565b60405180910390fd5b50565b600033905090565b816004600083815260200190815260200160002060006101000a81548173ffffffffffffffffffffffffffffffffffffffff021916908373ffffffffffffffffffffffffffffffffffffffff160217905550808273ffffffffffffffffffffffffffffffffffffffff166119e583610fff565b73ffffffffffffffffffffffffffffffffffffffff167f8c5be1e5ebec7d5bd14f71427d1e84f3dd0314c0f7b2291e5b200ac8c7c3b92560405160405180910390a45050565b6001816000016000828254019250508190555050565b600081600001549050919050565b600073ffffffffffffffffffffffffffffffffffffffff168273ffffffffffffffffffffffffffffffffffffffff1603611abe576040517f08c379a0000000000000000000000000000000000000000000000000000000008152600401611ab590613b58565b60405180910390fd5b611ac7816122eb565b15611b07576040517f08c379a0000000000000000000000000000000000000000000000000000000008152600401611afe90613bc4565b60405180910390fd5b611b1560008383600161232c565b611b1e816122eb565b15611b5e576040517f08c379a0000000000000000000000000000000000000000000000000000000008152600401611b5590613bc4565b60405180910390fd5b6001600360008473ffffffffffffffffffffffffffffffffffffffff1673ffffffffffffffffffffffffffffffffffffffff16815260200190815260200160002060008282540192505081905550816002600083815260200190815260200160002060006101000a81548173ffffffffffffffffffffffffffffffffffffffff021916908373ffffffffffffffffffffffffffffffffffffffff160217905550808273ffffffffffffffffffffffffffffffffffffffff16600073ffffffffffffffffffffffffffffffffffffffff167fddf252ad1be2c89b69c2b068fc378daa952ba7f163c4a11628f55a4df523b3ef60405160405180910390a4611c68600083836001612452565b5050565b611c75826122eb565b611cb4576040517f08c379a0000000000000000000000000000000000000000000000000000000008152600401611cab90613c56565b60405180910390fd5b80600660008481526020019081526020016000209081611cd491906137b6565b505050565b600080611ce583610fff565b90508073ffffffffffffffffffffffffffffffffffffffff168473ffffffffffffffffffffffffffffffffffffffff161480611d275750611d268185611821565b5b80611d6557508373ffffffffffffffffffffffffffffffffffffffff16611d4d84610a39565b73ffffffffffffffffffffffffffffffffffffffff16145b91505092915050565b8273ffffffffffffffffffffffffffffffffffffffff16611d8e82610fff565b73ffffffffffffffffffffffffffffffffffffffff1614611de4576040517f08c379a0000000000000000000000000000000000000000000000000000000008152600401611ddb90613ce8565b60405180910390fd5b600073ffffffffffffffffffffffffffffffffffffffff168273ffffffffffffffffffffffffffffffffffffffff1603611e53576040517f08c379a0000000000000000000000000000000000000000000000000000000008152600401611e4a90613d7a565b60405180910390fd5b611e60838383600161232c565b8273ffffffffffffffffffffffffffffffffffffffff16611e8082610fff565b73ffffffffffffffffffffffffffffffffffffffff1614611ed6576040517f08c379a0000000000000000000000000000000000000000000000000000000008152600401611ecd90613ce8565b60405180910390fd5b6004600082815260200190815260200160002060006101000a81549073ffffffffffffffffffffffffffffffffffffffff02191690556001600360008573ffffffffffffffffffffffffffffffffffffffff1673ffffffffffffffffffffffffffffffffffffffff168152602001908152602001600020600082825403925050819055506001600360008473ffffffffffffffffffffffffffffffffffffffff1673ffffffffffffffffffffffffffffffffffffffff16815260200190815260200160002060008282540192505081905550816002600083815260200190815260200160002060006101000a81548173ffffffffffffffffffffffffffffffffffffffff021916908373ffffffffffffffffffffffffffffffffffffffff160217905550808273ffffffffffffffffffffffffffffffffffffffff168473ffffffffffffffffffffffffffffffffffffffff167fddf252ad1be2c89b69c2b068fc378daa952ba7f163c4a11628f55a4df523b3ef60405160405180910390a46120628383836001612452565b505050565b60006002600083815260200190815260200160002060009054906101000a900473ffffffffffffffffffffffffffffffffffffffff169050919050565b8173ffffffffffffffffffffffffffffffffffffffff168373ffffffffffffffffffffffffffffffffffffffff1603612112576040517f08c379a000000000000000000000000000000000000000000000000000000000815260040161210990613de6565b60405180910390fd5b80600560008573ffffffffffffffffffffffffffffffffffffffff1673ffffffffffffffffffffffffffffffffffffffff16815260200190815260200160002060008473ffffffffffffffffffffffffffffffffffffffff1673ffffffffffffffffffffffffffffffffffffffff16815260200190815260200160002060006101000a81548160ff0219169083151502179055508173ffffffffffffffffffffffffffffffffffffffff168373ffffffffffffffffffffffffffffffffffffffff167f17307eab39ab6107e8899845ad3d59bd9653f200f220920489ca2b5937696c318360405161220391906129c4565b60405180910390a3505050565b61221b848484611d6e565b61222784848484612458565b612266576040517f08c379a000000000000000000000000000000000000000000000000000000000815260040161225d90613e78565b60405180910390fd5b50505050565b606060405180602001604052806000815250905090565b606061228e8261191f565b600061229861226c565b905060008151116122b857604051806020016040528060008152506122e3565b806122c2846125df565b6040516020016122d3929190613ae8565b6040516020818303038152906040525b915050919050565b60008073ffffffffffffffffffffffffffffffffffffffff1661230d83612067565b73ffffffffffffffffffffffffffffffffffffffff1614159050919050565b600181111561244c57600073ffffffffffffffffffffffffffffffffffffffff168473ffffffffffffffffffffffffffffffffffffffff16146123c05780600360008673ffffffffffffffffffffffffffffffffffffffff1673ffffffffffffffffffffffffffffffffffffffff16815260200190815260200160002060008282546123b89190613e98565b925050819055505b600073ffffffffffffffffffffffffffffffffffffffff168373ffffffffffffffffffffffffffffffffffffffff161461244b5780600360008573ffffffffffffffffffffffffffffffffffffffff1673ffffffffffffffffffffffffffffffffffffffff16815260200190815260200160002060008282546124439190613986565b925050819055505b5b50505050565b50505050565b60006124798473ffffffffffffffffffffffffffffffffffffffff166126ad565b156125d2578373ffffffffffffffffffffffffffffffffffffffff1663150b7a026124a261196a565b8786866040518563ffffffff1660e01b81526004016124c49493929190613f21565b6020604051808303816000875af192505050801561250057506040513d601f19601f820116820180604052508101906124fd9190613f82565b60015b612582573d8060008114612530576040519150601f19603f3d011682016040523d82523d6000602084013e612535565b606091505b50600081510361257a576040517f08c379a000000000000000000000000000000000000000000000000000000000815260040161257190613e78565b60405180910390fd5b805181602001fd5b63150b7a0260e01b7bffffffffffffffffffffffffffffffffffffffffffffffffffffffff1916817bffffffffffffffffffffffffffffffffffffffffffffffffffffffff1916149150506125d7565b600190505b949350505050565b6060600060016125ee846126d0565b01905060008167ffffffffffffffff81111561260d5761260c612be4565b5b6040519080825280601f01601f19166020018201604052801561263f5781602001600182028036833780820191505090505b509050600082602001820190505b6001156126a2578080600190039150507f3031323334353637383961626364656600000000000000000000000000000000600a86061a8153600a8581612696576126956139ba565b5b0494506000850361264d575b819350505050919050565b6000808273ffffffffffffffffffffffffffffffffffffffff163b119050919050565b600080600090507a184f03e93ff9f4daa797ed6e38ed64bf6a1f010000000000000000831061272e577a184f03e93ff9f4daa797ed6e38ed64bf6a1f0100000000000000008381612724576127236139ba565b5b0492506040810190505b6d04ee2d6d415b85acef8100000000831061276b576d04ee2d6d415b85acef81000000008381612761576127606139ba565b5b0492506020810190505b662386f26fc10000831061279a57662386f26fc1000083816127905761278f6139ba565b5b0492506010810190505b6305f5e10083106127c3576305f5e10083816127b9576127b86139ba565b5b0492506008810190505b61271083106127e85761271083816127de576127dd6139ba565b5b0492506004810190505b6064831061280b5760648381612801576128006139ba565b5b0492506002810190505b600a831061281a576001810190505b80915050919050565b604051806040016040528060008152602001600060ff1681525090565b60405180606001604052806000815260200160608152602001606081525090565b6000604051905090565b600080fd5b600080fd5b6000819050919050565b61288881612875565b811461289357600080fd5b50565b6000813590506128a58161287f565b92915050565b600060ff82169050919050565b6128c1816128ab565b81146128cc57600080fd5b50565b6000813590506128de816128b8565b92915050565b600080604083850312156128fb576128fa61286b565b5b600061290985828601612896565b925050602061291a858286016128cf565b9150509250929050565b60007fffffffff0000000000000000000000000000000000000000000000000000000082169050919050565b61295981612924565b811461296457600080fd5b50565b60008135905061297681612950565b92915050565b6000602082840312156129925761299161286b565b5b60006129a084828501612967565b91505092915050565b60008115159050919050565b6129be816129a9565b82525050565b60006020820190506129d960008301846129b5565b92915050565b6000602082840312156129f5576129f461286b565b5b6000612a0384828501612896565b91505092915050565b612a1581612875565b82525050565b600081519050919050565b600082825260208201905092915050565b60005b83811015612a55578082015181840152602081019050612a3a565b60008484015250505050565b6000601f19601f8301169050919050565b6000612a7d82612a1b565b612a878185612a26565b9350612a97818560208601612a37565b612aa081612a61565b840191505092915050565b6000606082019050612ac06000830186612a0c565b8181036020830152612ad28185612a72565b90508181036040830152612ae68184612a72565b9050949350505050565b60006020820190508181036000830152612b0a8184612a72565b905092915050565b600073ffffffffffffffffffffffffffffffffffffffff82169050919050565b6000612b3d82612b12565b9050919050565b612b4d81612b32565b82525050565b6000602082019050612b686000830184612b44565b92915050565b612b7781612b32565b8114612b8257600080fd5b50565b600081359050612b9481612b6e565b92915050565b60008060408385031215612bb157612bb061286b565b5b6000612bbf85828601612b85565b9250506020612bd085828601612896565b9150509250929050565b600080fd5b600080fd5b7f4e487b7100000000000000000000000000000000000000000000000000000000600052604160045260246000fd5b612c1c82612a61565b810181811067ffffffffffffffff82111715612c3b57612c3a612be4565b5b80604052505050565b6000612c4e612861565b9050612c5a8282612c13565b919050565b600067ffffffffffffffff821115612c7a57612c79612be4565b5b612c8382612a61565b9050602081019050919050565b82818337600083830152505050565b6000612cb2612cad84612c5f565b612c44565b905082815260208101848484011115612cce57612ccd612bdf565b5b612cd9848285612c90565b509392505050565b600082601f830112612cf657612cf5612bda565b5b8135612d06848260208601612c9f565b91505092915050565b600080600060608486031215612d2857612d2761286b565b5b6000612d3686828701612b85565b935050602084013567ffffffffffffffff811115612d5757612d56612870565b5b612d6386828701612ce1565b925050604084013567ffffffffffffffff811115612d8457612d83612870565b5b612d9086828701612ce1565b9150509250925092565b6000602082019050612daf6000830184612a0c565b92915050565b600080600060608486031215612dce57612dcd61286b565b5b6000612ddc86828701612b85565b9350506020612ded86828701612b85565b9250506040612dfe86828701612896565b9150509250925092565b600060208284031215612e1e57612e1d61286b565b5b6000612e2c84828501612b85565b91505092915050565b600081519050919050565b600082825260208201905092915050565b6000819050602082019050919050565b612e6a81612875565b82525050565b612e79816128ab565b82525050565b604082016000820151612e956000850182612e61565b506020820151612ea86020850182612e70565b50505050565b6000612eba8383612e7f565b60408301905092915050565b6000602082019050919050565b6000612ede82612e35565b612ee88185612e40565b9350612ef383612e51565b8060005b83811015612f24578151612f0b8882612eae565b9750612f1683612ec6565b925050600181019050612ef7565b5085935050505092915050565b60006020820190508181036000830152612f4b8184612ed3565b905092915050565b612f5c816128ab565b82525050565b6000602082019050612f776000830184612f53565b92915050565b6000604082019050612f9260008301856129b5565b612f9f6020830184612f53565b9392505050565b612faf816129a9565b8114612fba57600080fd5b50565b600081359050612fcc81612fa6565b92915050565b60008060408385031215612fe957612fe861286b565b5b6000612ff785828601612b85565b925050602061300885828601612fbd565b9150509250929050565b600067ffffffffffffffff82111561302d5761302c612be4565b5b61303682612a61565b9050602081019050919050565b600061305661305184613012565b612c44565b90508281526020810184848401111561307257613071612bdf565b5b61307d848285612c90565b509392505050565b600082601f83011261309a57613099612bda565b5b81356130aa848260208601613043565b91505092915050565b600080600080608085870312156130cd576130cc61286b565b5b60006130db87828801612b85565b94505060206130ec87828801612b85565b93505060406130fd87828801612896565b925050606085013567ffffffffffffffff81111561311e5761311d612870565b5b61312a87828801613085565b91505092959194509250565b600082825260208201905092915050565b600061315282612a1b565b61315c8185613136565b935061316c818560208601612a37565b61317581612a61565b840191505092915050565b60006060830160008301516131986000860182612e61565b50602083015184820360208601526131b08282613147565b915050604083015184820360408601526131ca8282613147565b9150508091505092915050565b600060208201905081810360008301526131f18184613180565b905092915050565b600081519050919050565b600082825260208201905092915050565b6000819050602082019050919050565b600060608301600083015161323d6000860182612e61565b50602083015184820360208601526132558282613147565b9150506040830151848203604086015261326f8282613147565b9150508091505092915050565b60006132888383613225565b905092915050565b6000602082019050919050565b60006132a8826131f9565b6132b28185613204565b9350836020820285016132c485613215565b8060005b8581101561330057848403895281516132e1858261327c565b94506132ec83613290565b925060208a019950506001810190506132c8565b50829750879550505050505092915050565b6000602082019050818103600083015261332c818461329d565b905092915050565b6000806040838503121561334b5761334a61286b565b5b600061335985828601612b85565b925050602061336a85828601612b85565b9150509250929050565b7f4e487b7100000000000000000000000000000000000000000000000000000000600052603260045260246000fd5b7f4d6f7669652063616e6e6f742062652072617465642074776963650000000000600082015250565b60006133d9601b83612a26565b91506133e4826133a3565b602082019050919050565b60006020820190508181036000830152613408816133cc565b9050919050565b7f4e487b7100000000000000000000000000000000000000000000000000000000600052601160045260246000fd5b600061344982612875565b91507fffffffffffffffffffffffffffffffffffffffffffffffffffffffffffffffff820361347b5761347a61340f565b5b600182019050919050565b7f4e487b7100000000000000000000000000000000000000000000000000000000600052602260045260246000fd5b600060028204905060018216806134cd57607f821691505b6020821081036134e0576134df613486565b5b50919050565b7f4552433732313a20617070726f76616c20746f2063757272656e74206f776e6560008201527f7200000000000000000000000000000000000000000000000000000000000000602082015250565b6000613542602183612a26565b915061354d826134e6565b604082019050919050565b6000602082019050818103600083015261357181613535565b9050919050565b7f4552433732313a20617070726f76652063616c6c6572206973206e6f7420746f60008201527f6b656e206f776e6572206f7220617070726f76656420666f7220616c6c000000602082015250565b60006135d4603d83612a26565b91506135df82613578565b604082019050919050565b60006020820190508181036000830152613603816135c7565b9050919050565b60008190508160005260206000209050919050565b60006020601f8301049050919050565b600082821b905092915050565b60006008830261366c7fffffffffffffffffffffffffffffffffffffffffffffffffffffffffffffffff8261362f565b613676868361362f565b95508019841693508086168417925050509392505050565b6000819050919050565b60006136b36136ae6136a984612875565b61368e565b612875565b9050919050565b6000819050919050565b6136cd83613698565b6136e16136d9826136ba565b84845461363c565b825550505050565b600090565b6136f66136e9565b6137018184846136c4565b505050565b5b818110156137255761371a6000826136ee565b600181019050613707565b5050565b601f82111561376a5761373b8161360a565b6137448461361f565b81016020851015613753578190505b61376761375f8561361f565b830182613706565b50505b505050565b600082821c905092915050565b600061378d6000198460080261376f565b1980831691505092915050565b60006137a6838361377c565b9150826002028217905092915050565b6137bf82612a1b565b67ffffffffffffffff8111156137d8576137d7612be4565b5b6137e282546134b5565b6137ed828285613729565b600060209050601f831160018114613820576000841561380e578287015190505b613818858261379a565b865550613880565b601f19841661382e8661360a565b60005b8281101561385657848901518255600182019150602085019450602081019050613831565b86831015613873578489015161386f601f89168261377c565b8355505b6001600288020188555050505b505050505050565b7f4552433732313a2063616c6c6572206973206e6f7420746f6b656e206f776e6560008201527f72206f7220617070726f76656400000000000000000000000000000000000000602082015250565b60006138e4602d83612a26565b91506138ef82613888565b604082019050919050565b60006020820190508181036000830152613913816138d7565b9050919050565b7f4552433732313a20696e76616c696420746f6b656e2049440000000000000000600082015250565b6000613950601883612a26565b915061395b8261391a565b602082019050919050565b6000602082019050818103600083015261397f81613943565b9050919050565b600061399182612875565b915061399c83612875565b92508282019050808211156139b4576139b361340f565b5b92915050565b7f4e487b7100000000000000000000000000000000000000000000000000000000600052601260045260246000fd5b60006139f482612875565b91506139ff83612875565b925082613a0f57613a0e6139ba565b5b828204905092915050565b7f4552433732313a2061646472657373207a65726f206973206e6f74206120766160008201527f6c6964206f776e65720000000000000000000000000000000000000000000000602082015250565b6000613a76602983612a26565b9150613a8182613a1a565b604082019050919050565b60006020820190508181036000830152613aa581613a69565b9050919050565b600081905092915050565b6000613ac282612a1b565b613acc8185613aac565b9350613adc818560208601612a37565b80840191505092915050565b6000613af48285613ab7565b9150613b008284613ab7565b91508190509392505050565b7f4552433732313a206d696e7420746f20746865207a65726f2061646472657373600082015250565b6000613b42602083612a26565b9150613b4d82613b0c565b602082019050919050565b60006020820190508181036000830152613b7181613b35565b9050919050565b7f4552433732313a20746f6b656e20616c7265616479206d696e74656400000000600082015250565b6000613bae601c83612a26565b9150613bb982613b78565b602082019050919050565b60006020820190508181036000830152613bdd81613ba1565b9050919050565b7f45524337323155524953746f726167653a2055524920736574206f66206e6f6e60008201527f6578697374656e7420746f6b656e000000000000000000000000000000000000602082015250565b6000613c40602e83612a26565b9150613c4b82613be4565b604082019050919050565b60006020820190508181036000830152613c6f81613c33565b9050919050565b7f4552433732313a207472616e736665722066726f6d20696e636f72726563742060008201527f6f776e6572000000000000000000000000000000000000000000000000000000602082015250565b6000613cd2602583612a26565b9150613cdd82613c76565b604082019050919050565b60006020820190508181036000830152613d0181613cc5565b9050919050565b7f4552433732313a207472616e7366657220746f20746865207a65726f2061646460008201527f7265737300000000000000000000000000000000000000000000000000000000602082015250565b6000613d64602483612a26565b9150613d6f82613d08565b604082019050919050565b60006020820190508181036000830152613d9381613d57565b9050919050565b7f4552433732313a20617070726f766520746f2063616c6c657200000000000000600082015250565b6000613dd0601983612a26565b9150613ddb82613d9a565b602082019050919050565b60006020820190508181036000830152613dff81613dc3565b9050919050565b7f4552433732313a207472616e7366657220746f206e6f6e20455243373231526560008201527f63656976657220696d706c656d656e7465720000000000000000000000000000602082015250565b6000613e62603283612a26565b9150613e6d82613e06565b604082019050919050565b60006020820190508181036000830152613e9181613e55565b9050919050565b6000613ea382612875565b9150613eae83612875565b9250828203905081811115613ec657613ec561340f565b5b92915050565b600081519050919050565b600082825260208201905092915050565b6000613ef382613ecc565b613efd8185613ed7565b9350613f0d818560208601612a37565b613f1681612a61565b840191505092915050565b6000608082019050613f366000830187612b44565b613f436020830186612b44565b613f506040830185612a0c565b8181036060830152613f628184613ee8565b905095945050505050565b600081519050613f7c81612950565b92915050565b600060208284031215613f9857613f9761286b565b5b6000613fa684828501613f6d565b9150509291505056fea26469706673582212203b03009e5ec25482cddc8191ad2f062b0bd09e3b0f47e9dcae4861570f93b89864736f6c63430008110033",
  "devdoc": {
    "kind": "dev",
    "methods": {
      "approve(address,uint256)": {
        "details": "See {IERC721-approve}."
      },
      "balanceOf(address)": {
        "details": "See {IERC721-balanceOf}."
      },
      "getApproved(uint256)": {
        "details": "See {IERC721-getApproved}."
      },
      "isApprovedForAll(address,address)": {
        "details": "See {IERC721-isApprovedForAll}."
      },
      "name()": {
        "details": "See {IERC721Metadata-name}."
      },
      "ownerOf(uint256)": {
        "details": "See {IERC721-ownerOf}."
      },
      "safeTransferFrom(address,address,uint256)": {
        "details": "See {IERC721-safeTransferFrom}."
      },
      "safeTransferFrom(address,address,uint256,bytes)": {
        "details": "See {IERC721-safeTransferFrom}."
      },
      "setApprovalForAll(address,bool)": {
        "details": "See {IERC721-setApprovalForAll}."
      },
      "supportsInterface(bytes4)": {
        "details": "See {IERC165-supportsInterface}."
      },
      "symbol()": {
        "details": "See {IERC721Metadata-symbol}."
      },
      "tokenURI(uint256)": {
        "details": "See {IERC721Metadata-tokenURI}."
      },
      "transferFrom(address,address,uint256)": {
        "details": "See {IERC721-transferFrom}."
      }
    },
    "version": 1
  },
  "userdoc": {
    "kind": "user",
    "methods": {},
    "version": 1
  },
  "storageLayout": {
    "storage": [
      {
        "astId": 25,
        "contract": "contracts/MoviesNFT.sol:MoviesNFT",
        "label": "_name",
        "offset": 0,
        "slot": "0",
        "type": "t_string_storage"
      },
      {
        "astId": 27,
        "contract": "contracts/MoviesNFT.sol:MoviesNFT",
        "label": "_symbol",
        "offset": 0,
        "slot": "1",
        "type": "t_string_storage"
      },
      {
        "astId": 31,
        "contract": "contracts/MoviesNFT.sol:MoviesNFT",
        "label": "_owners",
        "offset": 0,
        "slot": "2",
        "type": "t_mapping(t_uint256,t_address)"
      },
      {
        "astId": 35,
        "contract": "contracts/MoviesNFT.sol:MoviesNFT",
        "label": "_balances",
        "offset": 0,
        "slot": "3",
        "type": "t_mapping(t_address,t_uint256)"
      },
      {
        "astId": 39,
        "contract": "contracts/MoviesNFT.sol:MoviesNFT",
        "label": "_tokenApprovals",
        "offset": 0,
        "slot": "4",
        "type": "t_mapping(t_uint256,t_address)"
      },
      {
        "astId": 45,
        "contract": "contracts/MoviesNFT.sol:MoviesNFT",
        "label": "_operatorApprovals",
        "offset": 0,
        "slot": "5",
        "type": "t_mapping(t_address,t_mapping(t_address,t_bool))"
      },
      {
        "astId": 1091,
        "contract": "contracts/MoviesNFT.sol:MoviesNFT",
        "label": "_tokenURIs",
        "offset": 0,
        "slot": "6",
        "type": "t_mapping(t_uint256,t_string_storage)"
      },
      {
        "astId": 2745,
        "contract": "contracts/MoviesNFT.sol:MoviesNFT",
        "label": "_tokenIds",
        "offset": 0,
        "slot": "7",
        "type": "t_struct(Counter)1588_storage"
      },
      {
        "astId": 2770,
        "contract": "contracts/MoviesNFT.sol:MoviesNFT",
        "label": "moviesArr",
        "offset": 0,
        "slot": "8",
        "type": "t_array(t_struct(movieData)2752_storage)dyn_storage"
      },
      {
        "astId": 2775,
        "contract": "contracts/MoviesNFT.sol:MoviesNFT",
        "label": "movies",
        "offset": 0,
        "slot": "9",
        "type": "t_mapping(t_uint256,t_struct(movieData)2752_storage)"
      },
      {
        "astId": 2779,
        "contract": "contracts/MoviesNFT.sol:MoviesNFT",
        "label": "ratings",
        "offset": 0,
        "slot": "10",
        "type": "t_array(t_struct(rating)2761_storage)dyn_storage"
      },
      {
        "astId": 2784,
        "contract": "contracts/MoviesNFT.sol:MoviesNFT",
        "label": "userRating",
        "offset": 0,
        "slot": "11",
        "type": "t_mapping(t_address,t_struct(rating)2761_storage)"
      },
      {
        "astId": 2789,
        "contract": "contracts/MoviesNFT.sol:MoviesNFT",
        "label": "userMovieRating",
        "offset": 0,
        "slot": "12",
        "type": "t_mapping(t_address,t_array(t_uint256)dyn_storage)"
      }
    ],
    "types": {
      "t_address": {
        "encoding": "inplace",
        "label": "address",
        "numberOfBytes": "20"
      },
      "t_array(t_struct(movieData)2752_storage)dyn_storage": {
        "base": "t_struct(movieData)2752_storage",
        "encoding": "dynamic_array",
        "label": "struct MoviesNFT.movieData[]",
        "numberOfBytes": "32"
      },
      "t_array(t_struct(rating)2761_storage)dyn_storage": {
        "base": "t_struct(rating)2761_storage",
        "encoding": "dynamic_array",
        "label": "struct MoviesNFT.rating[]",
        "numberOfBytes": "32"
      },
      "t_array(t_uint256)dyn_storage": {
        "base": "t_uint256",
        "encoding": "dynamic_array",
        "label": "uint256[]",
        "numberOfBytes": "32"
      },
      "t_bool": {
        "encoding": "inplace",
        "label": "bool",
        "numberOfBytes": "1"
      },
      "t_mapping(t_address,t_array(t_uint256)dyn_storage)": {
        "encoding": "mapping",
        "key": "t_address",
        "label": "mapping(address => uint256[])",
        "numberOfBytes": "32",
        "value": "t_array(t_uint256)dyn_storage"
      },
      "t_mapping(t_address,t_bool)": {
        "encoding": "mapping",
        "key": "t_address",
        "label": "mapping(address => bool)",
        "numberOfBytes": "32",
        "value": "t_bool"
      },
      "t_mapping(t_address,t_mapping(t_address,t_bool))": {
        "encoding": "mapping",
        "key": "t_address",
        "label": "mapping(address => mapping(address => bool))",
        "numberOfBytes": "32",
        "value": "t_mapping(t_address,t_bool)"
      },
      "t_mapping(t_address,t_struct(rating)2761_storage)": {
        "encoding": "mapping",
        "key": "t_address",
        "label": "mapping(address => struct MoviesNFT.rating)",
        "numberOfBytes": "32",
        "value": "t_struct(rating)2761_storage"
      },
      "t_mapping(t_address,t_uint256)": {
        "encoding": "mapping",
        "key": "t_address",
        "label": "mapping(address => uint256)",
        "numberOfBytes": "32",
        "value": "t_uint256"
      },
      "t_mapping(t_uint256,t_address)": {
        "encoding": "mapping",
        "key": "t_uint256",
        "label": "mapping(uint256 => address)",
        "numberOfBytes": "32",
        "value": "t_address"
      },
      "t_mapping(t_uint256,t_string_storage)": {
        "encoding": "mapping",
        "key": "t_uint256",
        "label": "mapping(uint256 => string)",
        "numberOfBytes": "32",
        "value": "t_string_storage"
      },
      "t_mapping(t_uint256,t_struct(movieData)2752_storage)": {
        "encoding": "mapping",
        "key": "t_uint256",
        "label": "mapping(uint256 => struct MoviesNFT.movieData)",
        "numberOfBytes": "32",
        "value": "t_struct(movieData)2752_storage"
      },
      "t_string_storage": {
        "encoding": "bytes",
        "label": "string",
        "numberOfBytes": "32"
      },
      "t_struct(Counter)1588_storage": {
        "encoding": "inplace",
        "label": "struct Counters.Counter",
        "members": [
          {
            "astId": 1587,
            "contract": "contracts/MoviesNFT.sol:MoviesNFT",
            "label": "_value",
            "offset": 0,
            "slot": "0",
            "type": "t_uint256"
          }
        ],
        "numberOfBytes": "32"
      },
      "t_struct(movieData)2752_storage": {
        "encoding": "inplace",
        "label": "struct MoviesNFT.movieData",
        "members": [
          {
            "astId": 2747,
            "contract": "contracts/MoviesNFT.sol:MoviesNFT",
            "label": "movieNumber",
            "offset": 0,
            "slot": "0",
            "type": "t_uint256"
          },
          {
            "astId": 2749,
            "contract": "contracts/MoviesNFT.sol:MoviesNFT",
            "label": "movieName",
            "offset": 0,
            "slot": "1",
            "type": "t_string_storage"
          },
          {
            "astId": 2751,
            "contract": "contracts/MoviesNFT.sol:MoviesNFT",
            "label": "ipfsHash",
            "offset": 0,
            "slot": "2",
            "type": "t_string_storage"
          }
        ],
        "numberOfBytes": "96"
      },
      "t_struct(rating)2761_storage": {
        "encoding": "inplace",
        "label": "struct MoviesNFT.rating",
        "members": [
          {
            "astId": 2754,
            "contract": "contracts/MoviesNFT.sol:MoviesNFT",
            "label": "ratingOwner",
            "offset": 0,
            "slot": "0",
            "type": "t_address"
          },
          {
            "astId": 2756,
            "contract": "contracts/MoviesNFT.sol:MoviesNFT",
            "label": "movieNumber",
            "offset": 0,
            "slot": "1",
            "type": "t_uint256"
          },
          {
            "astId": 2758,
            "contract": "contracts/MoviesNFT.sol:MoviesNFT",
            "label": "ratingVal",
            "offset": 0,
            "slot": "2",
            "type": "t_uint8"
          },
          {
            "astId": 2760,
            "contract": "contracts/MoviesNFT.sol:MoviesNFT",
            "label": "createdAt",
            "offset": 0,
            "slot": "3",
            "type": "t_uint256"
          }
        ],
        "numberOfBytes": "128"
      },
      "t_uint256": {
        "encoding": "inplace",
        "label": "uint256",
        "numberOfBytes": "32"
      },
      "t_uint8": {
        "encoding": "inplace",
        "label": "uint8",
        "numberOfBytes": "1"
      }
    }
  }
}