{
  "address": "0xA3975e3Fd82BD9ccD8dc33Af97386779C514411c",
  "abi": [
    {
      "inputs": [],
      "stateMutability": "nonpayable",
      "type": "constructor"
    },
    {
      "anonymous": false,
      "inputs": [
        {
          "indexed": true,
          "internalType": "address",
          "name": "owner",
          "type": "address"
        },
        {
          "indexed": true,
          "internalType": "address",
          "name": "approved",
          "type": "address"
        },
        {
          "indexed": true,
          "internalType": "uint256",
          "name": "tokenId",
          "type": "uint256"
        }
      ],
      "name": "Approval",
      "type": "event"
    },
    {
      "anonymous": false,
      "inputs": [
        {
          "indexed": true,
          "internalType": "address",
          "name": "owner",
          "type": "address"
        },
        {
          "indexed": true,
          "internalType": "address",
          "name": "operator",
          "type": "address"
        },
        {
          "indexed": false,
          "internalType": "bool",
          "name": "approved",
          "type": "bool"
        }
      ],
      "name": "ApprovalForAll",
      "type": "event"
    },
    {
      "anonymous": false,
      "inputs": [
        {
          "indexed": true,
          "internalType": "address",
          "name": "from",
          "type": "address"
        },
        {
          "indexed": true,
          "internalType": "address",
          "name": "to",
          "type": "address"
        },
        {
          "indexed": true,
          "internalType": "uint256",
          "name": "tokenId",
          "type": "uint256"
        }
      ],
      "name": "Transfer",
      "type": "event"
    },
    {
      "inputs": [
        {
          "internalType": "address",
          "name": "to",
          "type": "address"
        },
        {
          "internalType": "uint256",
          "name": "tokenId",
          "type": "uint256"
        }
      ],
      "name": "approve",
      "outputs": [],
      "stateMutability": "nonpayable",
      "type": "function"
    },
    {
      "inputs": [
        {
          "internalType": "address",
          "name": "owner",
          "type": "address"
        }
      ],
      "name": "balanceOf",
      "outputs": [
        {
          "internalType": "uint256",
          "name": "",
          "type": "uint256"
        }
      ],
      "stateMutability": "view",
      "type": "function"
    },
    {
      "inputs": [
        {
          "internalType": "uint256",
          "name": "_movieNum",
          "type": "uint256"
        },
        {
          "internalType": "uint8",
          "name": "ratingVal",
          "type": "uint8"
        }
      ],
      "name": "castMovieRating",
      "outputs": [],
      "stateMutability": "nonpayable",
      "type": "function"
    },
    {
      "inputs": [
        {
          "internalType": "address",
          "name": "creator",
          "type": "address"
        },
        {
          "internalType": "string",
          "name": "name",
          "type": "string"
        },
        {
          "internalType": "string",
          "name": "ipfsHash",
          "type": "string"
        }
      ],
      "name": "createNFT",
      "outputs": [
        {
          "internalType": "uint256",
          "name": "",
          "type": "uint256"
        }
      ],
      "stateMutability": "nonpayable",
      "type": "function"
    },
    {
      "inputs": [],
      "name": "getAllMovies",
      "outputs": [
        {
          "components": [
            {
              "internalType": "uint256",
              "name": "movieNumber",
              "type": "uint256"
            },
            {
              "internalType": "string",
              "name": "movieName",
              "type": "string"
            },
            {
              "internalType": "string",
              "name": "ipfsHash",
              "type": "string"
            }
          ],
          "internalType": "struct MoviesNFT.movieData[]",
          "name": "",
          "type": "tuple[]"
        }
      ],
      "stateMutability": "view",
      "type": "function"
    },
    {
      "inputs": [],
      "name": "getAllRatings",
      "outputs": [
        {
          "components": [
            {
              "internalType": "address",
              "name": "ratingOwner",
              "type": "address"
            },
            {
              "internalType": "uint256",
              "name": "movieNumber",
              "type": "uint256"
            },
            {
              "internalType": "uint8",
              "name": "ratingVal",
              "type": "uint8"
            },
            {
              "internalType": "uint256",
              "name": "createdAt",
              "type": "uint256"
            }
          ],
          "internalType": "struct MoviesNFT.rating[]",
          "name": "",
          "type": "tuple[]"
        }
      ],
      "stateMutability": "view",
      "type": "function"
    },
    {
      "inputs": [
        {
          "internalType": "uint256",
          "name": "tokenId",
          "type": "uint256"
        }
      ],
      "name": "getApproved",
      "outputs": [
        {
          "internalType": "address",
          "name": "",
          "type": "address"
        }
      ],
      "stateMutability": "view",
      "type": "function"
    },
    {
      "inputs": [
        {
          "internalType": "uint256",
          "name": "_movieNum",
          "type": "uint256"
        }
      ],
      "name": "getAvgMovieRating",
      "outputs": [
        {
          "internalType": "uint8",
          "name": "",
          "type": "uint8"
        }
      ],
      "stateMutability": "view",
      "type": "function"
    },
    {
      "inputs": [
        {
          "internalType": "uint256",
          "name": "_movieNum",
          "type": "uint256"
        }
      ],
      "name": "getMovieByNumber",
      "outputs": [
        {
          "components": [
            {
              "internalType": "uint256",
              "name": "movieNumber",
              "type": "uint256"
            },
            {
              "internalType": "string",
              "name": "movieName",
              "type": "string"
            },
            {
              "internalType": "string",
              "name": "ipfsHash",
              "type": "string"
            }
          ],
          "internalType": "struct MoviesNFT.movieData",
          "name": "",
          "type": "tuple"
        }
      ],
      "stateMutability": "view",
      "type": "function"
    },
    {
      "inputs": [
        {
          "internalType": "address",
          "name": "userAdd",
          "type": "address"
        }
      ],
      "name": "getUserRating",
      "outputs": [
        {
          "internalType": "bool",
          "name": "",
          "type": "bool"
        },
        {
          "components": [
            {
              "internalType": "address",
              "name": "ratingOwner",
              "type": "address"
            },
            {
              "internalType": "uint256",
              "name": "movieNumber",
              "type": "uint256"
            },
            {
              "internalType": "uint8",
              "name": "ratingVal",
              "type": "uint8"
            },
            {
              "internalType": "uint256",
              "name": "createdAt",
              "type": "uint256"
            }
          ],
          "internalType": "struct MoviesNFT.rating",
          "name": "",
          "type": "tuple"
        }
      ],
      "stateMutability": "view",
      "type": "function"
    },
    {
      "inputs": [
        {
          "internalType": "address",
          "name": "owner",
          "type": "address"
        },
        {
          "internalType": "address",
          "name": "operator",
          "type": "address"
        }
      ],
      "name": "isApprovedForAll",
      "outputs": [
        {
          "internalType": "bool",
          "name": "",
          "type": "bool"
        }
      ],
      "stateMutability": "view",
      "type": "function"
    },
    {
      "inputs": [
        {
          "internalType": "uint256",
          "name": "",
          "type": "uint256"
        }
      ],
      "name": "movies",
      "outputs": [
        {
          "internalType": "uint256",
          "name": "movieNumber",
          "type": "uint256"
        },
        {
          "internalType": "string",
          "name": "movieName",
          "type": "string"
        },
        {
          "internalType": "string",
          "name": "ipfsHash",
          "type": "string"
        }
      ],
      "stateMutability": "view",
      "type": "function"
    },
    {
      "inputs": [
        {
          "internalType": "uint256",
          "name": "",
          "type": "uint256"
        }
      ],
      "name": "moviesArr",
      "outputs": [
        {
          "internalType": "uint256",
          "name": "movieNumber",
          "type": "uint256"
        },
        {
          "internalType": "string",
          "name": "movieName",
          "type": "string"
        },
        {
          "internalType": "string",
          "name": "ipfsHash",
          "type": "string"
        }
      ],
      "stateMutability": "view",
      "type": "function"
    },
    {
      "inputs": [],
      "name": "name",
      "outputs": [
        {
          "internalType": "string",
          "name": "",
          "type": "string"
        }
      ],
      "stateMutability": "view",
      "type": "function"
    },
    {
      "inputs": [
        {
          "internalType": "uint256",
          "name": "tokenId",
          "type": "uint256"
        }
      ],
      "name": "ownerOf",
      "outputs": [
        {
          "internalType": "address",
          "name": "",
          "type": "address"
        }
      ],
      "stateMutability": "view",
      "type": "function"
    },
    {
      "inputs": [
        {
          "internalType": "address",
          "name": "from",
          "type": "address"
        },
        {
          "internalType": "address",
          "name": "to",
          "type": "address"
        },
        {
          "internalType": "uint256",
          "name": "tokenId",
          "type": "uint256"
        }
      ],
      "name": "safeTransferFrom",
      "outputs": [],
      "stateMutability": "nonpayable",
      "type": "function"
    },
    {
      "inputs": [
        {
          "internalType": "address",
          "name": "from",
          "type": "address"
        },
        {
          "internalType": "address",
          "name": "to",
          "type": "address"
        },
        {
          "internalType": "uint256",
          "name": "tokenId",
          "type": "uint256"
        },
        {
          "internalType": "bytes",
          "name": "data",
          "type": "bytes"
        }
      ],
      "name": "safeTransferFrom",
      "outputs": [],
      "stateMutability": "nonpayable",
      "type": "function"
    },
    {
      "inputs": [
        {
          "internalType": "address",
          "name": "operator",
          "type": "address"
        },
        {
          "internalType": "bool",
          "name": "approved",
          "type": "bool"
        }
      ],
      "name": "setApprovalForAll",
      "outputs": [],
      "stateMutability": "nonpayable",
      "type": "function"
    },
    {
      "inputs": [
        {
          "internalType": "bytes4",
          "name": "interfaceId",
          "type": "bytes4"
        }
      ],
      "name": "supportsInterface",
      "outputs": [
        {
          "internalType": "bool",
          "name": "",
          "type": "bool"
        }
      ],
      "stateMutability": "view",
      "type": "function"
    },
    {
      "inputs": [],
      "name": "symbol",
      "outputs": [
        {
          "internalType": "string",
          "name": "",
          "type": "string"
        }
      ],
      "stateMutability": "view",
      "type": "function"
    },
    {
      "inputs": [
        {
          "internalType": "uint256",
          "name": "tokenId",
          "type": "uint256"
        }
      ],
      "name": "tokenURI",
      "outputs": [
        {
          "internalType": "string",
          "name": "",
          "type": "string"
        }
      ],
      "stateMutability": "view",
      "type": "function"
    },
    {
      "inputs": [
        {
          "internalType": "address",
          "name": "from",
          "type": "address"
        },
        {
          "internalType": "address",
          "name": "to",
          "type": "address"
        },
        {
          "internalType": "uint256",
          "name": "tokenId",
          "type": "uint256"
        }
      ],
      "name": "transferFrom",
      "outputs": [],
      "stateMutability": "nonpayable",
      "type": "function"
    }
  ],
  "transactionHash": "0xddb1aa57bad96381d0ac0675828144afd3f12e50f99485e6b8c549fe6ebe5116",
  "args": [],
  "numDeployments": 2,
  "solcInputHash": "03eeed967f44e7b69c2722717b8a1131",
  "bytecode": "0x60806040523480156200001157600080fd5b506040518060400160405280600881526020017f4d6f7669654e46540000000000000000000000000000000000000000000000008152506040518060400160405280600481526020017f4d4e46540000000000000000000000000000000000000000000000000000000081525081600090816200008f919062000324565b508060019081620000a1919062000324565b5050506200040b565b600081519050919050565b7f4e487b7100000000000000000000000000000000000000000000000000000000600052604160045260246000fd5b7f4e487b7100000000000000000000000000000000000000000000000000000000600052602260045260246000fd5b600060028204905060018216806200012c57607f821691505b602082108103620001425762000141620000e4565b5b50919050565b60008190508160005260206000209050919050565b60006020601f8301049050919050565b600082821b905092915050565b600060088302620001ac7fffffffffffffffffffffffffffffffffffffffffffffffffffffffffffffffff826200016d565b620001b886836200016d565b95508019841693508086168417925050509392505050565b6000819050919050565b6000819050919050565b600062000205620001ff620001f984620001d0565b620001da565b620001d0565b9050919050565b6000819050919050565b6200022183620001e4565b6200023962000230826200020c565b8484546200017a565b825550505050565b600090565b6200025062000241565b6200025d81848462000216565b505050565b5b8181101562000285576200027960008262000246565b60018101905062000263565b5050565b601f821115620002d4576200029e8162000148565b620002a9846200015d565b81016020851015620002b9578190505b620002d1620002c8856200015d565b83018262000262565b50505b505050565b600082821c905092915050565b6000620002f960001984600802620002d9565b1980831691505092915050565b6000620003148383620002e6565b9150826002028217905092915050565b6200032f82620000aa565b67ffffffffffffffff8111156200034b576200034a620000b5565b5b62000357825462000113565b6200036482828562000289565b600060209050601f8311600181146200039c576000841562000387578287015190505b62000393858262000306565b86555062000403565b601f198416620003ac8662000148565b60005b82811015620003d657848901518255600182019150602085019450602081019050620003af565b86831015620003f65784890151620003f2601f891682620002e6565b8355505b6001600288020188555050505b505050505050565b613fb0806200041b6000396000f3fe608060405234801561001057600080fd5b50600436106101415760003560e01c80636352211e116100b8578063b88d4fde1161007c578063b88d4fde146103c3578063c87b56dd146103df578063de5d9f3e1461040f578063e16f00651461043f578063e985e9c51461045d578063eac977c41461048d57610141565b80636352211e146102f95780636b3f30d41461032957806370a082311461035957806395d89b4114610389578063a22cb465146103a757610141565b8063095ea7b31161010a578063095ea7b3146102125780630b564a7c1461022e57806323b872dd1461025e578063404ebf6c1461027a57806342842e0e146102ac578063460168c3146102c857610141565b80620a09c01461014657806301ffc9a71461016257806303148ded1461019257806306fdde03146101c4578063081812fc146101e2575b600080fd5b610160600480360381019061015b9190612825565b6104ab565b005b61017c600480360381019061017791906128bd565b610769565b6040516101899190612905565b60405180910390f35b6101ac60048036038101906101a79190612920565b61084b565b6040516101bb939291906129ec565b60405180910390f35b6101cc610995565b6040516101d99190612a31565b60405180910390f35b6101fc60048036038101906101f79190612920565b610a27565b6040516102099190612a94565b60405180910390f35b61022c60048036038101906102279190612adb565b610a6d565b005b61024860048036038101906102439190612c50565b610b84565b6040516102559190612cdb565b60405180910390f35b61027860048036038101906102739190612cf6565b610c8e565b005b610294600480360381019061028f9190612920565b610cee565b6040516102a3939291906129ec565b60405180910390f35b6102c660048036038101906102c19190612cf6565b610e28565b005b6102e260048036038101906102dd9190612d49565b610e48565b6040516102f0929190612df8565b60405180910390f35b610313600480360381019061030e9190612920565b610f52565b6040516103209190612a94565b60405180910390f35b610343600480360381019061033e9190612920565b610fd8565b6040516103509190612e30565b60405180910390f35b610373600480360381019061036e9190612d49565b61109d565b6040516103809190612cdb565b60405180910390f35b610391611154565b60405161039e9190612a31565b60405180910390f35b6103c160048036038101906103bc9190612e77565b6111e6565b005b6103dd60048036038101906103d89190612f58565b6111fc565b005b6103f960048036038101906103f49190612920565b61125e565b6040516104069190612a31565b60405180910390f35b61042960048036038101906104249190612920565b611370565b604051610436919061307c565b60405180910390f35b6104476114cb565b60405161045491906131b7565b60405180910390f35b610477600480360381019061047291906131d9565b611658565b6040516104849190612905565b60405180910390f35b6104956116ec565b6040516104a2919061331d565b60405180910390f35b60005b600a805490508110156105bc573373ffffffffffffffffffffffffffffffffffffffff16600a82815481106104e6576104e561333f565b5b906000526020600020906004020160000160009054906101000a900473ffffffffffffffffffffffffffffffffffffffff1673ffffffffffffffffffffffffffffffffffffffff1614801561055f575082600a828154811061054b5761054a61333f565b5b906000526020600020906004020160010154145b156105a95760026001146105a8576040517f08c379a000000000000000000000000000000000000000000000000000000000815260040161059f906133ba565b60405180910390fd5b5b80806105b490613409565b9150506104ae565b50600060405180608001604052803373ffffffffffffffffffffffffffffffffffffffff1681526020018481526020018360ff16815260200142815250905080600b60003373ffffffffffffffffffffffffffffffffffffffff1673ffffffffffffffffffffffffffffffffffffffff16815260200190815260200160002060008201518160000160006101000a81548173ffffffffffffffffffffffffffffffffffffffff021916908373ffffffffffffffffffffffffffffffffffffffff1602179055506020820151816001015560408201518160020160006101000a81548160ff021916908360ff16021790555060608201518160030155905050600a81908060018154018082558091505060019003906000526020600020906004020160009091909190915060008201518160000160006101000a81548173ffffffffffffffffffffffffffffffffffffffff021916908373ffffffffffffffffffffffffffffffffffffffff1602179055506020820151816001015560408201518160020160006101000a81548160ff021916908360ff160217905550606082015181600301555050505050565b60007f80ac58cd000000000000000000000000000000000000000000000000000000007bffffffffffffffffffffffffffffffffffffffffffffffffffffffff1916827bffffffffffffffffffffffffffffffffffffffffffffffffffffffff1916148061083457507f5b5e139f000000000000000000000000000000000000000000000000000000007bffffffffffffffffffffffffffffffffffffffffffffffffffffffff1916827bffffffffffffffffffffffffffffffffffffffffffffffffffffffff1916145b806108445750610843826117d2565b5b9050919050565b6008818154811061085b57600080fd5b906000526020600020906003020160009150905080600001549080600101805461088490613480565b80601f01602080910402602001604051908101604052809291908181526020018280546108b090613480565b80156108fd5780601f106108d2576101008083540402835291602001916108fd565b820191906000526020600020905b8154815290600101906020018083116108e057829003601f168201915b50505050509080600201805461091290613480565b80601f016020809104026020016040519081016040528092919081815260200182805461093e90613480565b801561098b5780601f106109605761010080835404028352916020019161098b565b820191906000526020600020905b81548152906001019060200180831161096e57829003601f168201915b5050505050905083565b6060600080546109a490613480565b80601f01602080910402602001604051908101604052809291908181526020018280546109d090613480565b8015610a1d5780601f106109f257610100808354040283529160200191610a1d565b820191906000526020600020905b815481529060010190602001808311610a0057829003601f168201915b5050505050905090565b6000610a328261183c565b6004600083815260200190815260200160002060009054906101000a900473ffffffffffffffffffffffffffffffffffffffff169050919050565b6000610a7882610f52565b90508073ffffffffffffffffffffffffffffffffffffffff168373ffffffffffffffffffffffffffffffffffffffff1603610ae8576040517f08c379a0000000000000000000000000000000000000000000000000000000008152600401610adf90613523565b60405180910390fd5b8073ffffffffffffffffffffffffffffffffffffffff16610b07611887565b73ffffffffffffffffffffffffffffffffffffffff161480610b365750610b3581610b30611887565b611658565b5b610b75576040517f08c379a0000000000000000000000000000000000000000000000000000000008152600401610b6c906135b5565b60405180910390fd5b610b7f838361188f565b505050565b6000610b906007611948565b6000610b9c600761195e565b9050600060405180606001604052808381526020018681526020018581525090508060096000848152602001908152602001600020600082015181600001556020820151816001019081610bf09190613781565b506040820151816002019081610c069190613781565b509050506008819080600181540180825580915050600190039060005260206000209060030201600090919091909150600082015181600001556020820151816001019081610c559190613781565b506040820151816002019081610c6b9190613781565b505050610c78868361196c565b610c828285611b89565b81925050509392505050565b610c9f610c99611887565b82611bf6565b610cde576040517f08c379a0000000000000000000000000000000000000000000000000000000008152600401610cd5906138c5565b60405180910390fd5b610ce9838383611c8b565b505050565b6009602052806000526040600020600091509050806000015490806001018054610d1790613480565b80601f0160208091040260200160405190810160405280929190818152602001828054610d4390613480565b8015610d905780601f10610d6557610100808354040283529160200191610d90565b820191906000526020600020905b815481529060010190602001808311610d7357829003601f168201915b505050505090806002018054610da590613480565b80601f0160208091040260200160405190810160405280929190818152602001828054610dd190613480565b8015610e1e5780601f10610df357610100808354040283529160200191610e1e565b820191906000526020600020905b815481529060010190602001808311610e0157829003601f168201915b5050505050905083565b610e43838383604051806020016040528060008152506111fc565b505050565b6000610e52612740565b6000600b60008573ffffffffffffffffffffffffffffffffffffffff1673ffffffffffffffffffffffffffffffffffffffff1681526020019081526020016000206040518060800160405290816000820160009054906101000a900473ffffffffffffffffffffffffffffffffffffffff1673ffffffffffffffffffffffffffffffffffffffff1673ffffffffffffffffffffffffffffffffffffffff168152602001600182015481526020016002820160009054906101000a900460ff1660ff1660ff16815260200160038201548152505090506000816040015160ff161115610f44576001819250925050610f4d565b60008192509250505b915091565b600080610f5e83611f84565b9050600073ffffffffffffffffffffffffffffffffffffffff168173ffffffffffffffffffffffffffffffffffffffff1603610fcf576040517f08c379a0000000000000000000000000000000000000000000000000000000008152600401610fc690613931565b60405180910390fd5b80915050919050565b600080600090506000805b600a805490508110156110815784600a82815481106110055761100461333f565b5b9060005260206000209060040201600101540361106e57600a81815481106110305761102f61333f565b5b906000526020600020906004020160020160009054906101000a900460ff1660ff168361105d9190613951565b9250818061106a90613409565b9250505b808061107990613409565b915050610fe3565b506000818361109091906139b4565b9050809350505050919050565b60008073ffffffffffffffffffffffffffffffffffffffff168273ffffffffffffffffffffffffffffffffffffffff160361110d576040517f08c379a000000000000000000000000000000000000000000000000000000000815260040161110490613a57565b60405180910390fd5b600360008373ffffffffffffffffffffffffffffffffffffffff1673ffffffffffffffffffffffffffffffffffffffff168152602001908152602001600020549050919050565b60606001805461116390613480565b80601f016020809104026020016040519081016040528092919081815260200182805461118f90613480565b80156111dc5780601f106111b1576101008083540402835291602001916111dc565b820191906000526020600020905b8154815290600101906020018083116111bf57829003601f168201915b5050505050905090565b6111f86111f1611887565b8383611fc1565b5050565b61120d611207611887565b83611bf6565b61124c576040517f08c379a0000000000000000000000000000000000000000000000000000000008152600401611243906138c5565b60405180910390fd5b6112588484848461212d565b50505050565b60606112698261183c565b600060066000848152602001908152602001600020805461128990613480565b80601f01602080910402602001604051908101604052809291908181526020018280546112b590613480565b80156113025780601f106112d757610100808354040283529160200191611302565b820191906000526020600020905b8154815290600101906020018083116112e557829003601f168201915b505050505090506000611313612189565b9050600081510361132857819250505061136b565b60008251111561135d578082604051602001611345929190613ab3565b6040516020818303038152906040529250505061136b565b611366846121a0565b925050505b919050565b611378612781565b60096000838152602001908152602001600020604051806060016040529081600082015481526020016001820180546113b090613480565b80601f01602080910402602001604051908101604052809291908181526020018280546113dc90613480565b80156114295780601f106113fe57610100808354040283529160200191611429565b820191906000526020600020905b81548152906001019060200180831161140c57829003601f168201915b5050505050815260200160028201805461144290613480565b80601f016020809104026020016040519081016040528092919081815260200182805461146e90613480565b80156114bb5780601f10611490576101008083540402835291602001916114bb565b820191906000526020600020905b81548152906001019060200180831161149e57829003601f168201915b5050505050815250509050919050565b60606008805480602002602001604051908101604052809291908181526020016000905b8282101561164f57838290600052602060002090600302016040518060600160405290816000820154815260200160018201805461152c90613480565b80601f016020809104026020016040519081016040528092919081815260200182805461155890613480565b80156115a55780601f1061157a576101008083540402835291602001916115a5565b820191906000526020600020905b81548152906001019060200180831161158857829003601f168201915b505050505081526020016002820180546115be90613480565b80601f01602080910402602001604051908101604052809291908181526020018280546115ea90613480565b80156116375780601f1061160c57610100808354040283529160200191611637565b820191906000526020600020905b81548152906001019060200180831161161a57829003601f168201915b505050505081525050815260200190600101906114ef565b50505050905090565b6000600560008473ffffffffffffffffffffffffffffffffffffffff1673ffffffffffffffffffffffffffffffffffffffff16815260200190815260200160002060008373ffffffffffffffffffffffffffffffffffffffff1673ffffffffffffffffffffffffffffffffffffffff16815260200190815260200160002060009054906101000a900460ff16905092915050565b6060600a805480602002602001604051908101604052809291908181526020016000905b828210156117c957838290600052602060002090600402016040518060800160405290816000820160009054906101000a900473ffffffffffffffffffffffffffffffffffffffff1673ffffffffffffffffffffffffffffffffffffffff1673ffffffffffffffffffffffffffffffffffffffff168152602001600182015481526020016002820160009054906101000a900460ff1660ff1660ff16815260200160038201548152505081526020019060010190611710565b50505050905090565b60007f01ffc9a7000000000000000000000000000000000000000000000000000000007bffffffffffffffffffffffffffffffffffffffffffffffffffffffff1916827bffffffffffffffffffffffffffffffffffffffffffffffffffffffff1916149050919050565b61184581612208565b611884576040517f08c379a000000000000000000000000000000000000000000000000000000000815260040161187b90613931565b60405180910390fd5b50565b600033905090565b816004600083815260200190815260200160002060006101000a81548173ffffffffffffffffffffffffffffffffffffffff021916908373ffffffffffffffffffffffffffffffffffffffff160217905550808273ffffffffffffffffffffffffffffffffffffffff1661190283610f52565b73ffffffffffffffffffffffffffffffffffffffff167f8c5be1e5ebec7d5bd14f71427d1e84f3dd0314c0f7b2291e5b200ac8c7c3b92560405160405180910390a45050565b6001816000016000828254019250508190555050565b600081600001549050919050565b600073ffffffffffffffffffffffffffffffffffffffff168273ffffffffffffffffffffffffffffffffffffffff16036119db576040517f08c379a00000000000000000000000000000000000000000000000000000000081526004016119d290613b23565b60405180910390fd5b6119e481612208565b15611a24576040517f08c379a0000000000000000000000000000000000000000000000000000000008152600401611a1b90613b8f565b60405180910390fd5b611a32600083836001612249565b611a3b81612208565b15611a7b576040517f08c379a0000000000000000000000000000000000000000000000000000000008152600401611a7290613b8f565b60405180910390fd5b6001600360008473ffffffffffffffffffffffffffffffffffffffff1673ffffffffffffffffffffffffffffffffffffffff16815260200190815260200160002060008282540192505081905550816002600083815260200190815260200160002060006101000a81548173ffffffffffffffffffffffffffffffffffffffff021916908373ffffffffffffffffffffffffffffffffffffffff160217905550808273ffffffffffffffffffffffffffffffffffffffff16600073ffffffffffffffffffffffffffffffffffffffff167fddf252ad1be2c89b69c2b068fc378daa952ba7f163c4a11628f55a4df523b3ef60405160405180910390a4611b8560008383600161236f565b5050565b611b9282612208565b611bd1576040517f08c379a0000000000000000000000000000000000000000000000000000000008152600401611bc890613c21565b60405180910390fd5b80600660008481526020019081526020016000209081611bf19190613781565b505050565b600080611c0283610f52565b90508073ffffffffffffffffffffffffffffffffffffffff168473ffffffffffffffffffffffffffffffffffffffff161480611c445750611c438185611658565b5b80611c8257508373ffffffffffffffffffffffffffffffffffffffff16611c6a84610a27565b73ffffffffffffffffffffffffffffffffffffffff16145b91505092915050565b8273ffffffffffffffffffffffffffffffffffffffff16611cab82610f52565b73ffffffffffffffffffffffffffffffffffffffff1614611d01576040517f08c379a0000000000000000000000000000000000000000000000000000000008152600401611cf890613cb3565b60405180910390fd5b600073ffffffffffffffffffffffffffffffffffffffff168273ffffffffffffffffffffffffffffffffffffffff1603611d70576040517f08c379a0000000000000000000000000000000000000000000000000000000008152600401611d6790613d45565b60405180910390fd5b611d7d8383836001612249565b8273ffffffffffffffffffffffffffffffffffffffff16611d9d82610f52565b73ffffffffffffffffffffffffffffffffffffffff1614611df3576040517f08c379a0000000000000000000000000000000000000000000000000000000008152600401611dea90613cb3565b60405180910390fd5b6004600082815260200190815260200160002060006101000a81549073ffffffffffffffffffffffffffffffffffffffff02191690556001600360008573ffffffffffffffffffffffffffffffffffffffff1673ffffffffffffffffffffffffffffffffffffffff168152602001908152602001600020600082825403925050819055506001600360008473ffffffffffffffffffffffffffffffffffffffff1673ffffffffffffffffffffffffffffffffffffffff16815260200190815260200160002060008282540192505081905550816002600083815260200190815260200160002060006101000a81548173ffffffffffffffffffffffffffffffffffffffff021916908373ffffffffffffffffffffffffffffffffffffffff160217905550808273ffffffffffffffffffffffffffffffffffffffff168473ffffffffffffffffffffffffffffffffffffffff167fddf252ad1be2c89b69c2b068fc378daa952ba7f163c4a11628f55a4df523b3ef60405160405180910390a4611f7f838383600161236f565b505050565b60006002600083815260200190815260200160002060009054906101000a900473ffffffffffffffffffffffffffffffffffffffff169050919050565b8173ffffffffffffffffffffffffffffffffffffffff168373ffffffffffffffffffffffffffffffffffffffff160361202f576040517f08c379a000000000000000000000000000000000000000000000000000000000815260040161202690613db1565b60405180910390fd5b80600560008573ffffffffffffffffffffffffffffffffffffffff1673ffffffffffffffffffffffffffffffffffffffff16815260200190815260200160002060008473ffffffffffffffffffffffffffffffffffffffff1673ffffffffffffffffffffffffffffffffffffffff16815260200190815260200160002060006101000a81548160ff0219169083151502179055508173ffffffffffffffffffffffffffffffffffffffff168373ffffffffffffffffffffffffffffffffffffffff167f17307eab39ab6107e8899845ad3d59bd9653f200f220920489ca2b5937696c31836040516121209190612905565b60405180910390a3505050565b612138848484611c8b565b61214484848484612375565b612183576040517f08c379a000000000000000000000000000000000000000000000000000000000815260040161217a90613e43565b60405180910390fd5b50505050565b606060405180602001604052806000815250905090565b60606121ab8261183c565b60006121b5612189565b905060008151116121d55760405180602001604052806000815250612200565b806121df846124fc565b6040516020016121f0929190613ab3565b6040516020818303038152906040525b915050919050565b60008073ffffffffffffffffffffffffffffffffffffffff1661222a83611f84565b73ffffffffffffffffffffffffffffffffffffffff1614159050919050565b600181111561236957600073ffffffffffffffffffffffffffffffffffffffff168473ffffffffffffffffffffffffffffffffffffffff16146122dd5780600360008673ffffffffffffffffffffffffffffffffffffffff1673ffffffffffffffffffffffffffffffffffffffff16815260200190815260200160002060008282546122d59190613e63565b925050819055505b600073ffffffffffffffffffffffffffffffffffffffff168373ffffffffffffffffffffffffffffffffffffffff16146123685780600360008573ffffffffffffffffffffffffffffffffffffffff1673ffffffffffffffffffffffffffffffffffffffff16815260200190815260200160002060008282546123609190613951565b925050819055505b5b50505050565b50505050565b60006123968473ffffffffffffffffffffffffffffffffffffffff166125ca565b156124ef578373ffffffffffffffffffffffffffffffffffffffff1663150b7a026123bf611887565b8786866040518563ffffffff1660e01b81526004016123e19493929190613eec565b6020604051808303816000875af192505050801561241d57506040513d601f19601f8201168201806040525081019061241a9190613f4d565b60015b61249f573d806000811461244d576040519150601f19603f3d011682016040523d82523d6000602084013e612452565b606091505b506000815103612497576040517f08c379a000000000000000000000000000000000000000000000000000000000815260040161248e90613e43565b60405180910390fd5b805181602001fd5b63150b7a0260e01b7bffffffffffffffffffffffffffffffffffffffffffffffffffffffff1916817bffffffffffffffffffffffffffffffffffffffffffffffffffffffff1916149150506124f4565b600190505b949350505050565b60606000600161250b846125ed565b01905060008167ffffffffffffffff81111561252a57612529612b25565b5b6040519080825280601f01601f19166020018201604052801561255c5781602001600182028036833780820191505090505b509050600082602001820190505b6001156125bf578080600190039150507f3031323334353637383961626364656600000000000000000000000000000000600a86061a8153600a85816125b3576125b2613985565b5b0494506000850361256a575b819350505050919050565b6000808273ffffffffffffffffffffffffffffffffffffffff163b119050919050565b600080600090507a184f03e93ff9f4daa797ed6e38ed64bf6a1f010000000000000000831061264b577a184f03e93ff9f4daa797ed6e38ed64bf6a1f010000000000000000838161264157612640613985565b5b0492506040810190505b6d04ee2d6d415b85acef81000000008310612688576d04ee2d6d415b85acef8100000000838161267e5761267d613985565b5b0492506020810190505b662386f26fc1000083106126b757662386f26fc1000083816126ad576126ac613985565b5b0492506010810190505b6305f5e10083106126e0576305f5e10083816126d6576126d5613985565b5b0492506008810190505b61271083106127055761271083816126fb576126fa613985565b5b0492506004810190505b60648310612728576064838161271e5761271d613985565b5b0492506002810190505b600a8310612737576001810190505b80915050919050565b6040518060800160405280600073ffffffffffffffffffffffffffffffffffffffff16815260200160008152602001600060ff168152602001600081525090565b60405180606001604052806000815260200160608152602001606081525090565b6000604051905090565b600080fd5b600080fd5b6000819050919050565b6127c9816127b6565b81146127d457600080fd5b50565b6000813590506127e6816127c0565b92915050565b600060ff82169050919050565b612802816127ec565b811461280d57600080fd5b50565b60008135905061281f816127f9565b92915050565b6000806040838503121561283c5761283b6127ac565b5b600061284a858286016127d7565b925050602061285b85828601612810565b9150509250929050565b60007fffffffff0000000000000000000000000000000000000000000000000000000082169050919050565b61289a81612865565b81146128a557600080fd5b50565b6000813590506128b781612891565b92915050565b6000602082840312156128d3576128d26127ac565b5b60006128e1848285016128a8565b91505092915050565b60008115159050919050565b6128ff816128ea565b82525050565b600060208201905061291a60008301846128f6565b92915050565b600060208284031215612936576129356127ac565b5b6000612944848285016127d7565b91505092915050565b612956816127b6565b82525050565b600081519050919050565b600082825260208201905092915050565b60005b8381101561299657808201518184015260208101905061297b565b60008484015250505050565b6000601f19601f8301169050919050565b60006129be8261295c565b6129c88185612967565b93506129d8818560208601612978565b6129e1816129a2565b840191505092915050565b6000606082019050612a01600083018661294d565b8181036020830152612a1381856129b3565b90508181036040830152612a2781846129b3565b9050949350505050565b60006020820190508181036000830152612a4b81846129b3565b905092915050565b600073ffffffffffffffffffffffffffffffffffffffff82169050919050565b6000612a7e82612a53565b9050919050565b612a8e81612a73565b82525050565b6000602082019050612aa96000830184612a85565b92915050565b612ab881612a73565b8114612ac357600080fd5b50565b600081359050612ad581612aaf565b92915050565b60008060408385031215612af257612af16127ac565b5b6000612b0085828601612ac6565b9250506020612b11858286016127d7565b9150509250929050565b600080fd5b600080fd5b7f4e487b7100000000000000000000000000000000000000000000000000000000600052604160045260246000fd5b612b5d826129a2565b810181811067ffffffffffffffff82111715612b7c57612b7b612b25565b5b80604052505050565b6000612b8f6127a2565b9050612b9b8282612b54565b919050565b600067ffffffffffffffff821115612bbb57612bba612b25565b5b612bc4826129a2565b9050602081019050919050565b82818337600083830152505050565b6000612bf3612bee84612ba0565b612b85565b905082815260208101848484011115612c0f57612c0e612b20565b5b612c1a848285612bd1565b509392505050565b600082601f830112612c3757612c36612b1b565b5b8135612c47848260208601612be0565b91505092915050565b600080600060608486031215612c6957612c686127ac565b5b6000612c7786828701612ac6565b935050602084013567ffffffffffffffff811115612c9857612c976127b1565b5b612ca486828701612c22565b925050604084013567ffffffffffffffff811115612cc557612cc46127b1565b5b612cd186828701612c22565b9150509250925092565b6000602082019050612cf0600083018461294d565b92915050565b600080600060608486031215612d0f57612d0e6127ac565b5b6000612d1d86828701612ac6565b9350506020612d2e86828701612ac6565b9250506040612d3f868287016127d7565b9150509250925092565b600060208284031215612d5f57612d5e6127ac565b5b6000612d6d84828501612ac6565b91505092915050565b612d7f81612a73565b82525050565b612d8e816127b6565b82525050565b612d9d816127ec565b82525050565b608082016000820151612db96000850182612d76565b506020820151612dcc6020850182612d85565b506040820151612ddf6040850182612d94565b506060820151612df26060850182612d85565b50505050565b600060a082019050612e0d60008301856128f6565b612e1a6020830184612da3565b9392505050565b612e2a816127ec565b82525050565b6000602082019050612e456000830184612e21565b92915050565b612e54816128ea565b8114612e5f57600080fd5b50565b600081359050612e7181612e4b565b92915050565b60008060408385031215612e8e57612e8d6127ac565b5b6000612e9c85828601612ac6565b9250506020612ead85828601612e62565b9150509250929050565b600067ffffffffffffffff821115612ed257612ed1612b25565b5b612edb826129a2565b9050602081019050919050565b6000612efb612ef684612eb7565b612b85565b905082815260208101848484011115612f1757612f16612b20565b5b612f22848285612bd1565b509392505050565b600082601f830112612f3f57612f3e612b1b565b5b8135612f4f848260208601612ee8565b91505092915050565b60008060008060808587031215612f7257612f716127ac565b5b6000612f8087828801612ac6565b9450506020612f9187828801612ac6565b9350506040612fa2878288016127d7565b925050606085013567ffffffffffffffff811115612fc357612fc26127b1565b5b612fcf87828801612f2a565b91505092959194509250565b600082825260208201905092915050565b6000612ff78261295c565b6130018185612fdb565b9350613011818560208601612978565b61301a816129a2565b840191505092915050565b600060608301600083015161303d6000860182612d85565b50602083015184820360208601526130558282612fec565b9150506040830151848203604086015261306f8282612fec565b9150508091505092915050565b600060208201905081810360008301526130968184613025565b905092915050565b600081519050919050565b600082825260208201905092915050565b6000819050602082019050919050565b60006060830160008301516130e26000860182612d85565b50602083015184820360208601526130fa8282612fec565b915050604083015184820360408601526131148282612fec565b9150508091505092915050565b600061312d83836130ca565b905092915050565b6000602082019050919050565b600061314d8261309e565b61315781856130a9565b935083602082028501613169856130ba565b8060005b858110156131a557848403895281516131868582613121565b945061319183613135565b925060208a0199505060018101905061316d565b50829750879550505050505092915050565b600060208201905081810360008301526131d18184613142565b905092915050565b600080604083850312156131f0576131ef6127ac565b5b60006131fe85828601612ac6565b925050602061320f85828601612ac6565b9150509250929050565b600081519050919050565b600082825260208201905092915050565b6000819050602082019050919050565b60808201600082015161325b6000850182612d76565b50602082015161326e6020850182612d85565b5060408201516132816040850182612d94565b5060608201516132946060850182612d85565b50505050565b60006132a68383613245565b60808301905092915050565b6000602082019050919050565b60006132ca82613219565b6132d48185613224565b93506132df83613235565b8060005b838110156133105781516132f7888261329a565b9750613302836132b2565b9250506001810190506132e3565b5085935050505092915050565b6000602082019050818103600083015261333781846132bf565b905092915050565b7f4e487b7100000000000000000000000000000000000000000000000000000000600052603260045260246000fd5b7f4d6f7669652063616e6e6f742062652072617465642074776963650000000000600082015250565b60006133a4601b83612967565b91506133af8261336e565b602082019050919050565b600060208201905081810360008301526133d381613397565b9050919050565b7f4e487b7100000000000000000000000000000000000000000000000000000000600052601160045260246000fd5b6000613414826127b6565b91507fffffffffffffffffffffffffffffffffffffffffffffffffffffffffffffffff8203613446576134456133da565b5b600182019050919050565b7f4e487b7100000000000000000000000000000000000000000000000000000000600052602260045260246000fd5b6000600282049050600182168061349857607f821691505b6020821081036134ab576134aa613451565b5b50919050565b7f4552433732313a20617070726f76616c20746f2063757272656e74206f776e6560008201527f7200000000000000000000000000000000000000000000000000000000000000602082015250565b600061350d602183612967565b9150613518826134b1565b604082019050919050565b6000602082019050818103600083015261353c81613500565b9050919050565b7f4552433732313a20617070726f76652063616c6c6572206973206e6f7420746f60008201527f6b656e206f776e6572206f7220617070726f76656420666f7220616c6c000000602082015250565b600061359f603d83612967565b91506135aa82613543565b604082019050919050565b600060208201905081810360008301526135ce81613592565b9050919050565b60008190508160005260206000209050919050565b60006020601f8301049050919050565b600082821b905092915050565b6000600883026136377fffffffffffffffffffffffffffffffffffffffffffffffffffffffffffffffff826135fa565b61364186836135fa565b95508019841693508086168417925050509392505050565b6000819050919050565b600061367e613679613674846127b6565b613659565b6127b6565b9050919050565b6000819050919050565b61369883613663565b6136ac6136a482613685565b848454613607565b825550505050565b600090565b6136c16136b4565b6136cc81848461368f565b505050565b5b818110156136f0576136e56000826136b9565b6001810190506136d2565b5050565b601f82111561373557613706816135d5565b61370f846135ea565b8101602085101561371e578190505b61373261372a856135ea565b8301826136d1565b50505b505050565b600082821c905092915050565b60006137586000198460080261373a565b1980831691505092915050565b60006137718383613747565b9150826002028217905092915050565b61378a8261295c565b67ffffffffffffffff8111156137a3576137a2612b25565b5b6137ad8254613480565b6137b88282856136f4565b600060209050601f8311600181146137eb57600084156137d9578287015190505b6137e38582613765565b86555061384b565b601f1984166137f9866135d5565b60005b82811015613821578489015182556001820191506020850194506020810190506137fc565b8683101561383e578489015161383a601f891682613747565b8355505b6001600288020188555050505b505050505050565b7f4552433732313a2063616c6c6572206973206e6f7420746f6b656e206f776e6560008201527f72206f7220617070726f76656400000000000000000000000000000000000000602082015250565b60006138af602d83612967565b91506138ba82613853565b604082019050919050565b600060208201905081810360008301526138de816138a2565b9050919050565b7f4552433732313a20696e76616c696420746f6b656e2049440000000000000000600082015250565b600061391b601883612967565b9150613926826138e5565b602082019050919050565b6000602082019050818103600083015261394a8161390e565b9050919050565b600061395c826127b6565b9150613967836127b6565b925082820190508082111561397f5761397e6133da565b5b92915050565b7f4e487b7100000000000000000000000000000000000000000000000000000000600052601260045260246000fd5b60006139bf826127b6565b91506139ca836127b6565b9250826139da576139d9613985565b5b828204905092915050565b7f4552433732313a2061646472657373207a65726f206973206e6f74206120766160008201527f6c6964206f776e65720000000000000000000000000000000000000000000000602082015250565b6000613a41602983612967565b9150613a4c826139e5565b604082019050919050565b60006020820190508181036000830152613a7081613a34565b9050919050565b600081905092915050565b6000613a8d8261295c565b613a978185613a77565b9350613aa7818560208601612978565b80840191505092915050565b6000613abf8285613a82565b9150613acb8284613a82565b91508190509392505050565b7f4552433732313a206d696e7420746f20746865207a65726f2061646472657373600082015250565b6000613b0d602083612967565b9150613b1882613ad7565b602082019050919050565b60006020820190508181036000830152613b3c81613b00565b9050919050565b7f4552433732313a20746f6b656e20616c7265616479206d696e74656400000000600082015250565b6000613b79601c83612967565b9150613b8482613b43565b602082019050919050565b60006020820190508181036000830152613ba881613b6c565b9050919050565b7f45524337323155524953746f726167653a2055524920736574206f66206e6f6e60008201527f6578697374656e7420746f6b656e000000000000000000000000000000000000602082015250565b6000613c0b602e83612967565b9150613c1682613baf565b604082019050919050565b60006020820190508181036000830152613c3a81613bfe565b9050919050565b7f4552433732313a207472616e736665722066726f6d20696e636f72726563742060008201527f6f776e6572000000000000000000000000000000000000000000000000000000602082015250565b6000613c9d602583612967565b9150613ca882613c41565b604082019050919050565b60006020820190508181036000830152613ccc81613c90565b9050919050565b7f4552433732313a207472616e7366657220746f20746865207a65726f2061646460008201527f7265737300000000000000000000000000000000000000000000000000000000602082015250565b6000613d2f602483612967565b9150613d3a82613cd3565b604082019050919050565b60006020820190508181036000830152613d5e81613d22565b9050919050565b7f4552433732313a20617070726f766520746f2063616c6c657200000000000000600082015250565b6000613d9b601983612967565b9150613da682613d65565b602082019050919050565b60006020820190508181036000830152613dca81613d8e565b9050919050565b7f4552433732313a207472616e7366657220746f206e6f6e20455243373231526560008201527f63656976657220696d706c656d656e7465720000000000000000000000000000602082015250565b6000613e2d603283612967565b9150613e3882613dd1565b604082019050919050565b60006020820190508181036000830152613e5c81613e20565b9050919050565b6000613e6e826127b6565b9150613e79836127b6565b9250828203905081811115613e9157613e906133da565b5b92915050565b600081519050919050565b600082825260208201905092915050565b6000613ebe82613e97565b613ec88185613ea2565b9350613ed8818560208601612978565b613ee1816129a2565b840191505092915050565b6000608082019050613f016000830187612a85565b613f0e6020830186612a85565b613f1b604083018561294d565b8181036060830152613f2d8184613eb3565b905095945050505050565b600081519050613f4781612891565b92915050565b600060208284031215613f6357613f626127ac565b5b6000613f7184828501613f38565b9150509291505056fea26469706673582212200fb6520ff82b120852aa5a234586e25b2f2094df40e1bbf9d9e798c267fd58a764736f6c63430008110033",
  "devdoc": {
    "kind": "dev",
    "methods": {
      "approve(address,uint256)": {
        "details": "See {IERC721-approve}."
      },
      "balanceOf(address)": {
        "details": "See {IERC721-balanceOf}."
      },
      "getApproved(uint256)": {
        "details": "See {IERC721-getApproved}."
      },
      "isApprovedForAll(address,address)": {
        "details": "See {IERC721-isApprovedForAll}."
      },
      "name()": {
        "details": "See {IERC721Metadata-name}."
      },
      "ownerOf(uint256)": {
        "details": "See {IERC721-ownerOf}."
      },
      "safeTransferFrom(address,address,uint256)": {
        "details": "See {IERC721-safeTransferFrom}."
      },
      "safeTransferFrom(address,address,uint256,bytes)": {
        "details": "See {IERC721-safeTransferFrom}."
      },
      "setApprovalForAll(address,bool)": {
        "details": "See {IERC721-setApprovalForAll}."
      },
      "supportsInterface(bytes4)": {
        "details": "See {IERC165-supportsInterface}."
      },
      "symbol()": {
        "details": "See {IERC721Metadata-symbol}."
      },
      "tokenURI(uint256)": {
        "details": "See {IERC721Metadata-tokenURI}."
      },
      "transferFrom(address,address,uint256)": {
        "details": "See {IERC721-transferFrom}."
      }
    },
    "version": 1
  },
  "userdoc": {
    "kind": "user",
    "methods": {},
    "version": 1
  },
  "storageLayout": {
    "storage": [
      {
        "astId": 25,
        "contract": "contracts/MoviesNFT.sol:MoviesNFT",
        "label": "_name",
        "offset": 0,
        "slot": "0",
        "type": "t_string_storage"
      },
      {
        "astId": 27,
        "contract": "contracts/MoviesNFT.sol:MoviesNFT",
        "label": "_symbol",
        "offset": 0,
        "slot": "1",
        "type": "t_string_storage"
      },
      {
        "astId": 31,
        "contract": "contracts/MoviesNFT.sol:MoviesNFT",
        "label": "_owners",
        "offset": 0,
        "slot": "2",
        "type": "t_mapping(t_uint256,t_address)"
      },
      {
        "astId": 35,
        "contract": "contracts/MoviesNFT.sol:MoviesNFT",
        "label": "_balances",
        "offset": 0,
        "slot": "3",
        "type": "t_mapping(t_address,t_uint256)"
      },
      {
        "astId": 39,
        "contract": "contracts/MoviesNFT.sol:MoviesNFT",
        "label": "_tokenApprovals",
        "offset": 0,
        "slot": "4",
        "type": "t_mapping(t_uint256,t_address)"
      },
      {
        "astId": 45,
        "contract": "contracts/MoviesNFT.sol:MoviesNFT",
        "label": "_operatorApprovals",
        "offset": 0,
        "slot": "5",
        "type": "t_mapping(t_address,t_mapping(t_address,t_bool))"
      },
      {
        "astId": 1091,
        "contract": "contracts/MoviesNFT.sol:MoviesNFT",
        "label": "_tokenURIs",
        "offset": 0,
        "slot": "6",
        "type": "t_mapping(t_uint256,t_string_storage)"
      },
      {
        "astId": 2745,
        "contract": "contracts/MoviesNFT.sol:MoviesNFT",
        "label": "_tokenIds",
        "offset": 0,
        "slot": "7",
        "type": "t_struct(Counter)1588_storage"
      },
      {
        "astId": 2765,
        "contract": "contracts/MoviesNFT.sol:MoviesNFT",
        "label": "moviesArr",
        "offset": 0,
        "slot": "8",
        "type": "t_array(t_struct(movieData)2752_storage)dyn_storage"
      },
      {
        "astId": 2770,
        "contract": "contracts/MoviesNFT.sol:MoviesNFT",
        "label": "movies",
        "offset": 0,
        "slot": "9",
        "type": "t_mapping(t_uint256,t_struct(movieData)2752_storage)"
      },
      {
        "astId": 2774,
        "contract": "contracts/MoviesNFT.sol:MoviesNFT",
        "label": "ratings",
        "offset": 0,
        "slot": "10",
        "type": "t_array(t_struct(rating)2761_storage)dyn_storage"
      },
      {
        "astId": 2779,
        "contract": "contracts/MoviesNFT.sol:MoviesNFT",
        "label": "userRating",
        "offset": 0,
        "slot": "11",
        "type": "t_mapping(t_address,t_struct(rating)2761_storage)"
      },
      {
        "astId": 2784,
        "contract": "contracts/MoviesNFT.sol:MoviesNFT",
        "label": "userMovieRating",
        "offset": 0,
        "slot": "12",
        "type": "t_mapping(t_address,t_array(t_uint256)dyn_storage)"
      }
    ],
    "types": {
      "t_address": {
        "encoding": "inplace",
        "label": "address",
        "numberOfBytes": "20"
      },
      "t_array(t_struct(movieData)2752_storage)dyn_storage": {
        "base": "t_struct(movieData)2752_storage",
        "encoding": "dynamic_array",
        "label": "struct MoviesNFT.movieData[]",
        "numberOfBytes": "32"
      },
      "t_array(t_struct(rating)2761_storage)dyn_storage": {
        "base": "t_struct(rating)2761_storage",
        "encoding": "dynamic_array",
        "label": "struct MoviesNFT.rating[]",
        "numberOfBytes": "32"
      },
      "t_array(t_uint256)dyn_storage": {
        "base": "t_uint256",
        "encoding": "dynamic_array",
        "label": "uint256[]",
        "numberOfBytes": "32"
      },
      "t_bool": {
        "encoding": "inplace",
        "label": "bool",
        "numberOfBytes": "1"
      },
      "t_mapping(t_address,t_array(t_uint256)dyn_storage)": {
        "encoding": "mapping",
        "key": "t_address",
        "label": "mapping(address => uint256[])",
        "numberOfBytes": "32",
        "value": "t_array(t_uint256)dyn_storage"
      },
      "t_mapping(t_address,t_bool)": {
        "encoding": "mapping",
        "key": "t_address",
        "label": "mapping(address => bool)",
        "numberOfBytes": "32",
        "value": "t_bool"
      },
      "t_mapping(t_address,t_mapping(t_address,t_bool))": {
        "encoding": "mapping",
        "key": "t_address",
        "label": "mapping(address => mapping(address => bool))",
        "numberOfBytes": "32",
        "value": "t_mapping(t_address,t_bool)"
      },
      "t_mapping(t_address,t_struct(rating)2761_storage)": {
        "encoding": "mapping",
        "key": "t_address",
        "label": "mapping(address => struct MoviesNFT.rating)",
        "numberOfBytes": "32",
        "value": "t_struct(rating)2761_storage"
      },
      "t_mapping(t_address,t_uint256)": {
        "encoding": "mapping",
        "key": "t_address",
        "label": "mapping(address => uint256)",
        "numberOfBytes": "32",
        "value": "t_uint256"
      },
      "t_mapping(t_uint256,t_address)": {
        "encoding": "mapping",
        "key": "t_uint256",
        "label": "mapping(uint256 => address)",
        "numberOfBytes": "32",
        "value": "t_address"
      },
      "t_mapping(t_uint256,t_string_storage)": {
        "encoding": "mapping",
        "key": "t_uint256",
        "label": "mapping(uint256 => string)",
        "numberOfBytes": "32",
        "value": "t_string_storage"
      },
      "t_mapping(t_uint256,t_struct(movieData)2752_storage)": {
        "encoding": "mapping",
        "key": "t_uint256",
        "label": "mapping(uint256 => struct MoviesNFT.movieData)",
        "numberOfBytes": "32",
        "value": "t_struct(movieData)2752_storage"
      },
      "t_string_storage": {
        "encoding": "bytes",
        "label": "string",
        "numberOfBytes": "32"
      },
      "t_struct(Counter)1588_storage": {
        "encoding": "inplace",
        "label": "struct Counters.Counter",
        "members": [
          {
            "astId": 1587,
            "contract": "contracts/MoviesNFT.sol:MoviesNFT",
            "label": "_value",
            "offset": 0,
            "slot": "0",
            "type": "t_uint256"
          }
        ],
        "numberOfBytes": "32"
      },
      "t_struct(movieData)2752_storage": {
        "encoding": "inplace",
        "label": "struct MoviesNFT.movieData",
        "members": [
          {
            "astId": 2747,
            "contract": "contracts/MoviesNFT.sol:MoviesNFT",
            "label": "movieNumber",
            "offset": 0,
            "slot": "0",
            "type": "t_uint256"
          },
          {
            "astId": 2749,
            "contract": "contracts/MoviesNFT.sol:MoviesNFT",
            "label": "movieName",
            "offset": 0,
            "slot": "1",
            "type": "t_string_storage"
          },
          {
            "astId": 2751,
            "contract": "contracts/MoviesNFT.sol:MoviesNFT",
            "label": "ipfsHash",
            "offset": 0,
            "slot": "2",
            "type": "t_string_storage"
          }
        ],
        "numberOfBytes": "96"
      },
      "t_struct(rating)2761_storage": {
        "encoding": "inplace",
        "label": "struct MoviesNFT.rating",
        "members": [
          {
            "astId": 2754,
            "contract": "contracts/MoviesNFT.sol:MoviesNFT",
            "label": "ratingOwner",
            "offset": 0,
            "slot": "0",
            "type": "t_address"
          },
          {
            "astId": 2756,
            "contract": "contracts/MoviesNFT.sol:MoviesNFT",
            "label": "movieNumber",
            "offset": 0,
            "slot": "1",
            "type": "t_uint256"
          },
          {
            "astId": 2758,
            "contract": "contracts/MoviesNFT.sol:MoviesNFT",
            "label": "ratingVal",
            "offset": 0,
            "slot": "2",
            "type": "t_uint8"
          },
          {
            "astId": 2760,
            "contract": "contracts/MoviesNFT.sol:MoviesNFT",
            "label": "createdAt",
            "offset": 0,
            "slot": "3",
            "type": "t_uint256"
          }
        ],
        "numberOfBytes": "128"
      },
      "t_uint256": {
        "encoding": "inplace",
        "label": "uint256",
        "numberOfBytes": "32"
      },
      "t_uint8": {
        "encoding": "inplace",
        "label": "uint8",
        "numberOfBytes": "1"
      }
    }
  }
}